:100000000C9472000C9494000C9494000C94940042
:100010000C9494000C9494000C9494000C94940010
:100020000C9494000C9494000C9494000C94940000
:100030000C9494000C9494000C9494000C945D0522
:100040000C9494000C9494000C9494000C949400E0
:100050000C9494000C9494000C9494000C949400D0
:100060000C9494000C941E040C9494000C94EF03D4
:100070000C9494000C9494000C9494000C949400B0
:100080000C9494000C9494000C9494000C949400A0
:100090000C9494000C9494000C9494000C94940090
:1000A0000C9494000C9494000C9494000C94940080
:1000B0000C9494000C9494000C9494000C94940070
:1000C0000C9494000C9494000C9494000C94940060
:1000D0000C9494000C9494000C9494000C94940050
:1000E0000C94940011241FBECFEFD1E2DEBFCDBF30
:1000F00000E00CBF12E0A0E0B2E0E6E4F8E100E0CE
:100100000BBF02C007900D92A43BB107D9F71BBEED
:1001100013E0A4EBB2E001C01D92A23FB107E1F7EA
:100120000E94B6060C94210C0C940000CF93DF9330
:10013000FC0162E070E00E94E106EB0122E030E0A9
:1001400008C0CF01B9010E94E106009741F02F5F7E
:100150003F4FC217D307ACF781E090E002C080E0C8
:1001600090E0DF91CF910895CF92DF92EF92FF92CE
:100170000F931F93CF93DF93009721F00E943708CE
:100180007C0104C090EDE92E97E0F92EC2E0D0E0AA
:1001900000E010E080E0C82E82E0D82E16C0CE012C
:1001A0000E949600009781F00F5F1F4F00D00F92C2
:1001B000EDB7FEB7D282C182D483C3830E94F30815
:1001C0000F900F900F900F902196EC16FD063CF7C4
:1001D00000D00F928AE192E0EDB7FEB7928381835F
:1001E000148303830E94F3080F900F900F900F90D9
:1001F000DF91CF911F910F91FF90EF90DF90CF9003
:100200000895EF92FF921F93CF93DF93CDB7DEB7A0
:1002100028970FB6F894DEBF0FBECDBF009719F038
:10022000FC01108101C011E624E2E22E22E0F22E50
:100230000F920F92EDB7FEB7F282E1820E94F308AF
:100240000F900F904091EC035091ED03CE01019679
:1002500068E070E00E9499080097A1F00E941702E0
:100260002981FC0120831182183619F0143739F4E2
:1002700003C00E941F02DCCF0E943402D9CF0E942B
:100280004B02D6CF0E9485020E94B20228960FB67A
:10029000F894DEBF0FBECDBFDF91CF911F91FF90CD
:1002A000EF9008950F931F93CF93DF93CDB7DEB7F1
:1002B00062970FB6F894DEBF0FBECDBF08E212E022
:1002C0000F920F92EDB7FEB7128301830E94F308DD
:1002D0000F900F904091EC035091ED03CE010196E9
:1002E00068E070E00E949908009761F0CE010196E5
:1002F0000E943708BC01009729F0CE0109960E94A0
:10030000C802DECF0E9431030E94730362960FB6CB
:10031000F894DEBF0FBECDBFDF91CF911F910F913B
:100320000895CF92DF92EF92FF920F931F93CF9396
:10033000DF93009741F0FC012081222321F00E94ED
:1003400037088C0102C000ED17E0EE24FF24C2E064
:10035000D0E030E0C32E32E0D32E17C0CE010E9491
:100360009600009789F00894E11CF11C00D00F92D0
:10037000EDB7FEB7D282C182D483C3830E94F30853
:100380000F900F900F900F9021960C171D0734F7C8
:1003900000D00F928AE192E0EDB7FEB7928381839D
:1003A000F482E3820E94F3080F900F900F900F9059
:1003B000DF91CF911F910F91FF90EF90DF90CF9041
:1003C00008958FEF80930B0180930A010895109296
:1003D0000B011092B40208958FEF80930B0180936C
:1003E000B402089521E030E002C0220F331F8A9545
:1003F000E2F720958091B40228232093B402209341
:100400000B01089521E030E002C0220F331F8A95CE
:10041000E2F78091B402822B8093B40280930B01A7
:10042000089580958093B40280930B01089584E031
:1004300090E00E94080708950E949E070895FC011D
:100440008091B5029091B602009739F4F093B6020C
:10045000E093B50213821282089593838283F0930E
:10046000B602E093B5020895E091B502F091B602AC
:10047000309731F49093B6028093B50208C0F90129
:100480002281338121153105D1F793838283FC01C9
:10049000138212820895CF93DF93FC01A091B502DD
:1004A000B091B602109749F0608171813A2F2B2FDD
:1004B000C0E0D0E0582F4F2F1BC09093B60280931E
:1004C000B502138212821EC0209721F43283238347
:1004D0009A0106C08A819B8193838283FB83EA838E
:1004E00012968D919C911397009741F0ED01DC01DC
:1004F0008D919C9111978617970734F33093B5022D
:100500002093B602DF91CF9108950F931F93CF935D
:10051000DF938AE090E00E940509C091B502D09176
:10052000B6020CE212E013C000D00F92EDB7FEB796
:100530001283018388819981948383830E94F308C5
:100540000A80DB81C02D0F900F900F900F902097A5
:1005500059F78AE090E00E940509DF91CF911F9141
:100560000F91089509C0FC01228133813093B602B6
:100570002093B5020E949E078091B5029091B60229
:10058000009789F708958EE090E00E94080708958B
:10059000EF92FF920F931F93CF93DF93F82EE92EE4
:1005A0008B010E94C302DC01FC013296CF2DDE2DAF
:1005B0008AE0099001928150E1F711961C930E9305
:1005C000C091B702D091B802209729F4B093B80235
:1005D000A093B70230C020E030E040E050E001C01E
:1005E000EF0188819981480F591F4017510734F452
:1005F000EC85FD859E01309799F701C0FE0121151C
:10060000310579F480819181801B910B91838083E6
:100610001D96FC93EE931C97B093B802A093B7027B
:1006200019C0309769F4041B150B11961C930E9397
:10063000E901BD87AC871D961C921E921C970AC0CB
:1006400011961C921E92E901BD87AC871D96FC9302
:10065000EE931C97DF91CF911F910F91FF90EF9038
:100660000895EF92FF920F931F93CF93DF938AE049
:1006700090E00E940509C091B702D091B80200E055
:1006800010E086E3E82E82E0F82E20C08881998170
:10069000080F191F00D000D0EDB7FEB73196ADB7E7
:1006A000BEB71296FC92EE921197938382831583C4
:1006B00004830E94F3080C84DD85C02D8DB79EB79E
:1006C00006960FB6F8949EBF0FBE8DBF2097F1F629
:1006D0008AE090E00E940509DF91CF911F910F9170
:1006E000FF90EF90089509C0FC0124853585309373
:1006F000B8022093B7020E949E078091B7029091A2
:10070000B802009789F70895F8940E94B904789484
:100710008823D1F3843011F090E008958FEF9FEF9C
:100720000895CF93C82F8A3019F48DE00E94910369
:10073000F89480915F03882359F4C093C60081E048
:1007400080935F030AC0789486EF8A95F1F7F89456
:100750008C2F0E94D6040097B1F3789481E090E04A
:10076000CF91089582E492E09093ED038093EC039F
:1007700080E592E09093EF038093EE030E9486045D
:1007800010925F031092C50083E08093C400E1ECF7
:10079000F0E08081886080838081806480838081B4
:1007A000806180838081806880830895CF93C82F83
:1007B0008A3019F48DE00E94D60380915F0388236C
:1007C00031F4C093C60081E080935F0303C08C2F97
:1007D0000E94D604CF9108950E94150508951F9296
:1007E0000F920FB60F920BB60F9211242F933F93D7
:1007F0004F935F936F937F938F939F93AF93BF9329
:10080000EF93FF930E94F804882319F410925F037A
:1008100002C08093C600FF91EF91BF91AF919F916D
:100820008F917F916F915F914F913F912F910F9099
:100830000BBE0F900FBE0F901F9018951F920F9236
:100840000FB60F920BB60F9211241F932F933F9365
:100850004F935F936F937F938F939F93AF93BF93C8
:10086000EF93FF93CF93DF93CDB7DEB72A97DEBF29
:10087000CDBF1091C6001B3161F480915E02909152
:100880005F0201968170907090935F0280935E0288
:1008900024C0143069F01D3009F41AE020915E0282
:1008A00030915F022115310519F0812F0E94D60386
:1008B000812F0E949704143011F01A3071F480E1F6
:1008C00096E09A838983CE01039661E472E00E94E8
:1008D0006308CE0101960E949B052A96DEBFCDBF1C
:1008E000DF91CF91FF91EF91BF91AF919F918F9148
:1008F0007F916F915F914F913F912F911F910F9039
:100900000BBE0F900FBE0F901F9018951092A5036D
:100910001092A4031092A3031092A2031092A703B3
:100920001092A60310926103109260030895482F5D
:100930002091A6033091A7032F5F3F4FC90160E4C8
:1009400070E00E94E1069C01809160039091610338
:100950002817390759F03093A7032093A603285589
:100960003C4FF901408381E090E0089580E090E001
:10097000089580916003909161032091A6033091C6
:10098000A7032817390779F0019660E470E00E9408
:10099000E106909361038093600388559C4FFC01AE
:1009A000808190E0089580E090E00895482F2091A4
:1009B000A4033091A5032F5F3F4FC90160E470E0AD
:1009C0000E94E1069C018091A2039091A303281745
:1009D000390759F03093A5032093A4032E593C4FB7
:1009E000F901408381E090E0089580E090E008956F
:1009F0008091A2039091A3032091A4033091A503B9
:100A00002817390779F0019660E470E00E94E1064A
:100A10009093A3038093A2038E599C4FFC01808185
:100A200090E0089580E090E00895809160039091B7
:100A300061032091A6033091A7038217930741F029
:100A400088559C4FFC01818190E08F7390700895D0
:100A500080E090E008951092B200E6EBF0E0808133
:100A600080628083E0E7F0E0808181608083E1EB59
:100A7000F0E080818160808380818260808308953E
:100A8000CF93DF930DC08C859D859093B8028093A2
:100A9000B702CE0102960E949B05CE010E949E07DE
:100AA000C091B702D091B802209721F08881998136
:100AB000009749F3DF91CF9108951F920F920FB6DF
:100AC0000F920BB60F9211242F933F934F935F9386
:100AD0006F937F938F939F93AF93BF93EF93FF9306
:100AE000E091B702F091B802309749F0808191818E
:100AF000019791838083009711F40E944005FF9134
:100B0000EF91BF91AF919F918F917F916F915F9185
:100B10004F913F912F910F900BBE0F900FBE0F90F2
:100B20001F9018951092BC021092BB0210925E03A7
:100B300010925D030895CF93DF93482FE92F8091A2
:100B4000BB029091BC02C0915D03D0915E030196FF
:100B500020E130E0B9010E94E1068C179D0731F1D8
:100B600080915D0390915E030196B9010E94E106B8
:100B70009093BC028093BB028091BB029091BC0217
:100B8000DC01AA0FBB1F63E0880F991F6A95E1F78C
:100B9000A80FB91FA354BD4FC42FDE2F8AE00990C0
:100BA0000D928150E1F781E090E002C080E090E09A
:100BB000DF91CF9108959C014091BB025091BC02FE
:100BC00080915D0390915E034817590731F1809140
:100BD0005D0390915E03019660E170E00E94E10682
:100BE00090935E0380935D0380915D0390915E031B
:100BF000FC01EE0FFF1FA3E0880F991FAA95E1F7F4
:100C0000E80FF91FD901E354FD4F8AE001900D92DE
:100C10008150E1F781E090E0089580E090E0089550
:100C2000AF92BF92CF92DF92EF92FF920F931F93FA
:100C3000CF93DF93CDB7DEB7CA54D0400FB6F89448
:100C4000DEBF0FBECDBF0E94EC03009709F47CC04D
:100C5000CE010B960E94CD08009729F480E692E021
:100C60000E940C09FFCFCE010B9665E772E00E944F
:100C700055088C0180E090E065E772E00E9455081D
:100C80007C0180E090E065E772E00E9455085C011D
:100C900080E090E065E772E00E9455086C01011564
:100CA000110509F445C0C8016DE772E00E945A08B9
:100CB000009721F4C7010E9491013AC0C80163E87E
:100CC00072E00E945A08009779F5E114F10419F4D2
:100CD00089E892E02BC0C7010E9437088C01C5014A
:100CE0006DE772E00E945A080097D9F481E991E01B
:100CF0009A838983CE010396C114D10411F0B60101
:100D000002C061E972E00E946308F894C80160E0E3
:100D100071E00E94E106CE0101960E94C80278941B
:100D200007C082E992E002C08AE992E00E940C09C1
:100D30000F920F928AE792E0EDB7FEB7928381831C
:100D40000E94F3080F900F90C65BDF4F0FB6F89428
:100D5000DEBF0FBECDBFDF91CF911F910F91FF90EE
:100D6000EF90DF90CF90BF90AF900895CF93DF9337
:100D7000CDB7DEB72A970FB6F894DEBF0FBECDBF52
:100D80000E94B2030E9492050E942B0578940F9254
:100D90000F9283E392E0EDB7FEB7928381830E94C6
:100DA000F3080F900F90F894CE0101960E94DB0596
:100DB00078940097C1F3E981FA81CE0103961995E1
:100DC000F2CF97FB092E07260AD077FD04D00CD06E
:100DD00006D000201AF4709561957F4F0895F6F7BC
:100DE000909581959F4F0895AA1BBB1B51E107C0A9
:100DF000AA1FBB1FA617B70710F0A61BB70B881FAB
:100E0000991F5A95A9F780959095BC01CD01089539
:100E1000CF93DF93AC018230910510F442E050E0B3
:100E2000E091EA03F091EB0320E030E0A0E0B0E0D5
:100E300024C08081918184179507D0F0841795078D
:100E400071F482819381109729F013969C938E936D
:100E500012972CC09093EB038093EA0327C02115CF
:100E6000310519F08217930718F49C01BD01EF01B9
:100E700092818381DF01E92FF82F3097D1F6211578
:100E80003105F9F0C901841B950B8430910580F47C
:100E90008A819B816115710521F0FB019383828317
:100EA00004C09093EB038093EA03FE01329642C0A4
:100EB000FE01E80FF91F41935193029799838883AC
:100EC00039C08091E8039091E903009741F4809143
:100ED000AF029091B0029093E9038093E8032091D0
:100EE000AD023091AE022115310541F42DB73EB768
:100EF0008091B1029091B202281B390BE091E80376
:100F0000F091E903E217F30798F42E1B3F0B241727
:100F1000350770F0CA0102962817390748F08E0F7E
:100F20009F1F9093E9038093E8034193519302C07C
:100F3000E0E0F0E0CF01DF91CF9108950F931F9390
:100F4000CF93DF939C01009709F48CC0DC011297CA
:100F500013961C921E9212976091EA037091EB0314
:100F60006115710589F48D919C911197820F931FE2
:100F70002091E8033091E9032817390769F5B09308
:100F8000E903A093E8036EC0FB0140E050E001C01C
:100F9000FC01EA17FB0730F482819381AF010097CF
:100FA000B9F71FC0E9012297FB83EA830881198101
:100FB000C901800F911F8E179F0759F4808191817D
:100FC000800F911F029699838883828193819B83EE
:100FD0008A834115510529F4B093EB03A093EA03EA
:100FE00041C0FA01B383A283C191D191EC0FFD1FDF
:100FF000AE17BF0781F4F901929182918C0F9D1F6A
:101000000296DA0111969C938E93828193811396B6
:101010009C938E931297E0E0F0E002C0FB01BC01CC
:10102000DB0112968D919C9113970097B9F7CB0134
:1010300002962D913C911197820F931F2091E80306
:101040003091E9032817390769F4309729F4109291
:10105000EB031092EA0302C0138212827093E90339
:101060006093E803DF91CF911F910F910895FC01E8
:1010700088279927E89421912032E9F3293010F04C
:101080002E30C8F32B3241F02D3239F4689404C06D
:101090000E949108820F911D219120532A30C0F3A4
:1010A0001EF4909581959F4F089549EB52E00E9460
:1010B0006A080895FB01DC018D91019080190110EF
:1010C000D9F3990B0895FB01DC0101900D920020EA
:1010D000E1F70895FA01A191B081009719F41097F2
:1010E000E1F0CD01DC01CD010D90002011F4C00133
:1010F00013C0FB012191222319F02015D9F7F3CF5A
:10110000FB012191201519F41E92119606C022238D
:10111000C1F70D900020A1F7D001FA01A193B0838F
:1011200008957AE0979F902D879F802D910D11242F
:101130000895CF92DF92EF92FF920F931F93CF9378
:10114000DF938C016A01FA01838180FF1AC01616B1
:101150001706BCF47B01E8010EC0C6010E94570BC4
:10116000FFEF8F3F9F0769F089930894E108F1082A
:101170008A30910521F021E0E216F10471F718821E
:1011800002C000E010E0C801DF91CF911F910F91E4
:10119000FF90EF90DF90CF9008950F931F93CF9320
:1011A000DF938C01E091EC03F091ED03838180FFEC
:1011B00012C0E8018091EC039091ED030E94570B5F
:1011C0002FEF8F3F920739F089938A30910591F77D
:1011D0002197188202C000E010E0C801DF91CF9192
:1011E0001F910F910895CF93DF93CDB7DEB7FE0126
:1011F0003696619171918091EE039091EF03AF016A
:101200000E943A09DF91CF9108956091EE037091A9
:10121000EF030E94970B08950F931F93CF93DF93D3
:101220008C01E091EE03F091EF03838181FF1AC0FE
:10123000C0E0D0E005C01995009711F0CFEFDFEFC7
:10124000F80181918F016091EE037091EF03DB0152
:101250001896ED91FC911997882369F78AE0199502
:10126000009711F0CFEFDFEFCE01DF91CF911F910B
:101270000F9108952F923F924F925F926F927F92BB
:101280008F929F92AF92BF92CF92DF92EF92FF9296
:101290000F931F93CF93DF93CDB7DEB72D970FB684
:1012A000F894DEBF0FBECDBF3C017D876C875A012D
:1012B000FC0117821682838181FFC8C12E01089428
:1012C000411C511CF3019381EC85FD8593FD8591B3
:1012D00093FF8191FD87EC87882309F4B3C18532A0
:1012E00041F493FD859193FF8191FD87EC878532D1
:1012F00029F490E0B3010E94970BE4CFFF24EE2481
:1013000010E01032B0F48B3269F08C3228F4803265
:1013100051F0833271F40BC08D3239F0803349F4CF
:1013200011602CC01260146029C0186027C01061C1
:1013300025C017FD2EC0282F20532A3098F416FF01
:1013400008C08F2D880FF82EFF0CFF0CF80EF20E40
:1013500015C08E2D880FE82EEE0CEE0CE80EE20E76
:1013600010620CC08E3221F416FD6CC1106406C0F0
:101370008C3611F4106802C0883659F4EC85FD856E
:1013800093FD859193FF8191FD87EC87882309F078
:10139000B8CF982F9554933018F09052933038F47A
:1013A00024E030E0A20EB31E3FE339830FC0833642
:1013B00031F0833781F0833509F05AC022C0F5013E
:1013C0008081898322E030E0A20EB31E21E0C22E8C
:1013D000D12C420114C092E0292E312C2A0C3B1C46
:1013E000F5018080918016FF03C06F2D70E002C070
:1013F0006FEF7FEFC4010E944C0B6C0151011F770E
:1014000015C082E0282E312C2A0C3B1CF50180806F
:10141000918016FF03C06F2D70E002C06FEF7FEF69
:10142000C4010E94410B6C011068510113FD1CC0E6
:1014300006C080E290E0B3010E94970BEA948E2DE3
:1014400090E0C816D906A8F30FC0F40117FD8591E6
:1014500017FF81914F0190E0B3010E94970BE110BB
:10146000EA940894C108D108C114D10471F7E7C007
:10147000843611F0893651F5F50117FF07C08081D8
:101480009181A281B38124E030E008C08081918104
:10149000AA2797FDA095BA2F22E030E0A20EB31E36
:1014A000012F0F76B7FF08C0B095A0959095819554
:1014B0009F4FAF4FBF4F0068BC01CD01A2012AE092
:1014C00030E00E94C30BD82ED4183FC0853721F4DA
:1014D0001F7E2AE030E020C0197F8F36A9F08037C8
:1014E00020F4883509F0AEC00BC0803721F0883772
:1014F00009F0A8C001C0106114FF09C0146007C042
:1015000014FF08C0166006C028E030E005C020E1E6
:1015100030E002C020E132E0F50117FF07C0608132
:1015200071818281938144E050E006C060817181C5
:1015300080E090E042E050E0A40EB51EA2010E94BF
:10154000C30BD82ED418012F0F7706FF09C00E7FCA
:10155000DF1430F404FF06C002FD04C00F7E02C099
:101560001D2D01C01F2D802F90E004FF0CC0FE0137
:10157000ED0DF11D2081203311F4097E09C002FF19
:1015800006C01E5F05C086789070009709F01F5F47
:10159000802E992403FD12C000FF0DC0FD2C1E15E6
:1015A00050F4FE0CF11A1E2D06C080E290E0B3014B
:1015B0000E94970B1F5F1E15C0F304C01E1510F488
:1015C000E11A01C0EE2484FE0FC080E390E0B30175
:1015D0000E94970B82FE1FC081FE03C088E590E049
:1015E00010C088E790E00DC0C40186789070009725
:1015F00091F081FC02C080E201C08BE207FD8DE228
:1016000090E0B3010E94970B06C080E390E0B30125
:101610000E94970BFA94DF14C0F3DA94F201ED0DF7
:10162000F11D808190E0B3010E94970BDD20A9F7A6
:1016300006C080E290E0B3010E94970BEA94EE208E
:10164000C1F740CEF3018681978102C08FEF9FEFF3
:101650002D960FB6F894DEBF0FBECDBFDF91CF91B0
:101660001F910F91FF90EF90DF90CF90BF90AF90C0
:101670009F908F907F906F905F904F903F902F90B2
:101680000895FC010590615070400110D8F78095D5
:1016900090958E0F9F1F0895FC016150704001903E
:1016A0000110D8F7809590958E0F9F1F0895CF93C6
:1016B000DF93EC012B8120FF35C026FF09C02F7B73
:1016C0002B838E819F8101969F838E838A8128C080
:1016D00022FF0FC0E881F9818081992787FD9095CD
:1016E000009719F420622B831DC03196F983E8839B
:1016F00011C0EA85FB85CE01199597FF0BC02B81A0
:101700003FEF8F3F930711F480E101C080E2822B0D
:101710008B8308C02E813F812F5F3F4F3F832E83F5
:1017200090E002C08FEF9FEFDF91CF9108950F936C
:101730001F93CF93DF938C01EB018B8181FF1BC043
:1017400082FF0DC02E813F818C819D812817390732
:1017500064F4E881F9810193F983E88306C0E885A0
:10176000F985802F1995009731F48E819F8101961C
:101770009F838E8302C00FEF1FEFC801DF91CF91CF
:101780001F910F910895FA01AA27283051F12031B5
:1017900081F1E8946F936E7F6E5F7F4F8F4F9F4F05
:1017A000AF4FB1E03ED0B4E03CD0670F781F891F47
:1017B0009A1FA11D680F791F8A1F911DA11D6A0F15
:1017C000711D811D911DA11D20D009F468943F91C8
:1017D0002AE0269F11243019305D3193DEF6CF01C7
:1017E0000895462F4770405D4193B3E00FD0C9F78D
:1017F000F6CF462F4F70405D4A3318F0495D31FDFA
:101800004052419302D0A9F7EACFB4E0A69597954C
:10181000879577956795BA95C9F700976105710522
:1018200008959B01AC010A2E06945795479537956C
:101830002795BA95C9F7620F731F841F951FA01DC6
:061840000895F894FFCFAB
:1018460025642069732061207072696D65206E754C
:101856006D626572202121210A00636F756E743DE9
:1018660025640A003E2020003E3E20002D2D3E2508
:101876006320002420002D2D3E2564282564292080
:1018860000000000000100000000000084030000CA
:1018960000000002000000009103000000000100AB
:1018A6006C6F676F75742C20676F6F642062796543
:1018B600202121210020090A0D00242000707269D0
:1018C6006D650074696D6572002121212D323232F9
:1018D60000002121212D33333300556E6B6E6F7757
:1018E6006E20636F6D6D616E642E2E2E000000F209
:0418F60003200000CB
:00000001FF
