:100000000C9472000C9494000C9494000C94940042
:100010000C9494000C9494000C9494000C94940010
:100020000C9494000C9494000C9494000C94940000
:100030000C9494000C9494000C9494000C94580527
:100040000C9494000C9494000C9494000C949400E0
:100050000C9494000C9494000C9494000C949400D0
:100060000C9405080C94E8060C9494000C94B906C2
:100070000C9494000C94AB000C9494000C94940099
:100080000C9494000C9494000C9494000C949400A0
:100090000C9494000C9494000C9494000C94940090
:1000A0000C9494000C9494000C9494000C94940080
:1000B0000C9494000C9494000C9494000C94940070
:1000C0000C9494000C9494000C9494000C94940060
:1000D0000C9494000C9494000C9494000C94940050
:1000E0000C94940011241FBECFEFD1E2DEBFCDBF30
:1000F00000E00CBF14E0A0E0B2E0E2E1F8E200E0D2
:100100000BBF02C007900D92A036B107D9F71BBEF6
:1001100015E0A0E6B4E001C01D92A43AB107E1F7F2
:100120000E94340E0C9407140C940000809880E810
:1001300080937C000895EAE7F0E080818068808306
:100140008DED90E00197F1F7808188608083808158
:100150008064808308951F920F920FB60F920BB6A2
:100160000F9211240F931F932F933F934F935F93FD
:100170006F937F938F939F93AF93BF93EF93FF936F
:10018000CF93DF93CDB7DEB72897DEBFCDBF809189
:10019000780090917900EAE7F0E020812F772083C2
:1001A00000D000D0EDB7FEB731968E010F5F1F4F24
:1001B000ADB7BEB712961C930E93119720E032E0B4
:1001C000338322839370958384830E94F1108DB7CB
:1001D0009EB706960FB6F8949EBF0FBE8DBFC8019E
:1001E0000E94B7032896DEBFCDBFDF91CF91FF916C
:1001F000EF91BF91AF919F918F917F916F915F919F
:100200004F913F912F911F910F910F900BBE0F9027
:100210000FBE0F901F901895CF93DF93FC0162E003
:1002200070E00E94610EEB0122E030E008C0CF01D7
:10023000B9010E94610E009741F02F5F3F4FC21736
:10024000D307ACF781E090E002C080E090E0DF915E
:10025000CF910895CF92DF92EF92FF920F931F9369
:10026000CF93DF93009721F00E94EE0F7C0104C032
:1002700090EDE92E97E0F92EC2E0D0E000E010E02A
:1002800083E0C82E82E0D82E16C0CE010E940C0159
:10029000009781F00F5F1F4F00D00F92EDB7FEB7B0
:1002A000D282C182D483C3830E94AA100F900F9080
:1002B0000F900F902196EC16FD063CF700D00F92A0
:1002C0008DE192E0EDB7FEB79283818314830383BF
:1002D0000E94AA100F900F900F900F90DF91CF9176
:1002E0001F910F91FF90EF90DF90CF900895EF92C4
:1002F000FF921F93CF93DF93CDB7DEB728970FB64A
:10030000F894DEBF0FBECDBF009719F0FC0110813D
:1003100001C011E627E2E22E22E0F22E0F920F92A8
:10032000EDB7FEB7F282E1820E94AA100F900F9003
:1003300040919E0550919F05CE01019668E070E0C6
:100340000E9450100097A1F00E948D022981FC01AB
:1003500020831182183619F0143739F403C00E9433
:100360009502DCCF0E94AA02D9CF0E94C102D6CF4B
:100370000E94FB020E94280328960FB6F894DEBF65
:100380000FBECDBFDF91CF911F91FF90EF900895E9
:100390000F931F93CF93DF93CDB7DEB762970FB65E
:1003A000F894DEBF0FBECDBF0BE212E00F920F92AA
:1003B000EDB7FEB7128301830E94AA100F900F9031
:1003C00040919E0550919F05CE01019668E070E036
:1003D0000E945010009761F0CE0101960E94EE0F2E
:1003E000BC01009729F0CE0109960E949205DECF4C
:1003F0000E94FB050E943D0662960FB6F894DEBF90
:100400000FBECDBFDF91CF911F910F910895CF9275
:10041000DF92EF92FF920F931F93CF93DF9300979A
:1004200041F0FC012081222321F00E94EE0F8C017B
:1004300002C000ED17E0EE24FF24C2E0D0E033E07C
:10044000C32E32E0D32E17C0CE010E940C010097BC
:1004500089F00894E11CF11C00D00F92EDB7FEB7B3
:10046000D282C182D483C3830E94AA100F900F90BE
:100470000F900F9021960C171D0734F700D00F92A4
:100480008DE192E0EDB7FEB792838183F482E3823F
:100490000E94AA100F900F900F900F90DF91CF91B4
:1004A0001F910F91FF90EF90DF90CF9008958FEF05
:1004B00080930B0180930A01089510920B01109212
:1004C000600408958FEF80930B018093600408957A
:1004D00021E030E002C0220F331F8A95E2F7209519
:1004E0008091600428232093600420930B010895D9
:1004F00021E030E002C0220F331F8A95E2F780919D
:100500006004822B8093600480930B010895809592
:100510008093600480930B01089584E090E00E9432
:10052000BF0E08950E94550F0895FC01809161044B
:1005300090916204009739F4F0936204E0936104AF
:1005400013821282089593838283F0936204E0936E
:1005500061040895E0916104F0916204309731F4F0
:10056000909362048093610408C0F9012281338171
:1005700021153105D1F793838283FC011382128206
:100580000895CF93DF93FC01A0916104B0916204C0
:10059000109749F0608171813A2F2B2FC0E0D0E095
:1005A000582F4F2F1BC090936204809361041382D5
:1005B00012821EC0209721F4328323839A0106C041
:1005C0008A819B8193838283FB83EA8312968D9138
:1005D0009C911397009741F0ED01DC018D919C9166
:1005E00011978617970734F33093610420936204C0
:1005F000DF91CF9108950F931F93CF93DF938AE0FC
:1006000090E00E94BC10C0916104D09162040FE29E
:1006100012E013C000D00F92EDB7FEB71283018332
:1006200088819981948383830E94AA100A80DB8148
:10063000C02D0F900F900F900F90209759F78AE0E0
:1006400090E00E94BC10DF91CF911F910F9108950F
:1006500009C0FC012281338130936204209361043C
:100660000E94550F8091610490916204009789F770
:10067000089510926E0410926D041092100510925D
:100680000F050895CF93DF93482FE92F80916D04D4
:1006900090916E04C0910F05D0911005019620E154
:1006A00030E0B9010E94610E8C179D0731F18091F5
:1006B0000F05909110050196B9010E94610E90936B
:1006C0006E0480936D0480916D0490916E04DC0142
:1006D000AA0FBB1F63E0880F991F6A95E1F7A80F67
:1006E000B91FA159BB4FC42FDE2F8AE009900D928C
:1006F0008150E1F781E090E002C080E090E0DF917E
:10070000CF9108959C0140916D0450916E048091A9
:100710000F05909110054817590731F180910F0589
:1007200090911005019660E170E00E94610E909337
:10073000100580930F0580910F0590911005FC0125
:10074000EE0FFF1FA3E0880F991FAA95E1F7E80FAE
:10075000F91FD901E159FB4F8AE001900D928150B8
:10076000E1F781E090E0089580E090E00895FC01D9
:100770002081222319F50E949B0081E090E0909354
:1007800064048093630480916304909164040097EF
:10079000D1F700D00F9289E392E0EDB7FEB79283D4
:1007A00081838091650490916604948383830E9481
:1007B000AA100F900F900F900F9008950E94EE0FC7
:1007C0009C01B901882777FD8095982F0E947C0BAA
:1007D00029E030EF4CE85AE30E944A0A20E030E07A
:1007E0004AE754E40E944A0A0E94F30BDC01CB0161
:1007F000845F91406AE070E00E94610E709366042D
:100800006093650410926404109263040895DC01FF
:100810002C912223A9F481E0809367040E94FF07B2
:1008200080E00E9403080F920F928CE592E0EDB7F2
:10083000FEB7928381830E94AA100F900F900895B3
:1008400020916704213019F02230D9F509C01092A7
:10085000680482E08093670480E00E9403080895A2
:100860000E94EE0F60916804682B66956695669508
:1008700070E080E090E00E947C0B20E030E040E8F7
:100880005DE30E944A0A0E945D08609368040E942A
:10089000010800D00F92EDB7FEB731968BE692E0DB
:1008A000ADB7BEB712969C938E9311978091680452
:1008B000828313820E94AA100F900F900F900F90C6
:1008C00008950E9401088CE992E00E94C3100895E7
:1008D000AF92BF92CF92DF92EF92FF920F931F934E
:1008E000CF93DF93CDB7DEB7CA54D0400FB6F8949C
:1008F000DEBF0FBECDBF0E94B606009709F494C0BC
:10090000CE010B960E948410009729F48BEC92E0A4
:100910000E94C310FFCFCE010B9660EE72E00E94E2
:100920000C108C0180E090E060EE72E00E940C10F0
:100930007C0180E090E060EE72E00E940C105C01AF
:1009400080E090E060EE72E00E940C106C010115F6
:10095000110509F45DC0C80168EE72E00E94111033
:10096000009721F4C7010E94070252C0C8016EEE31
:1009700072E00E941110009779F5E114F10419F466
:1009800084EF92E043C0C7010E94EE0F8C01C501C5
:1009900068EE72E00E9411100097D9F487E092E0AF
:1009A0009A838983CE010396C114D10411F0B60154
:1009B00002C06CEF72E00E941A10F894C80160E067
:1009C00071E00E94610ECE0101960E94920578941A
:1009D0001FC08DEF92E01AC0C80165E073E00E946D
:1009E0001110009729F48CEF92E00E94B70310C019
:1009F000C8016CE073E00E941110009729F48CEF9D
:100A000092E00E94070404C081E193E00E94C310B9
:100A10000F920F9285EE92E0EDB7FEB7928381833D
:100A20000E94AA100F900F90C65BDF4F0FB6F8948C
:100A3000DEBF0FBECDBFDF91CF911F910F91FF9011
:100A4000EF90DF90CF90BF90AF9008951092B200DA
:100A5000E6EBF0E0808180628083E0E7F0E0808177
:100A600081608083E1EBF0E0808181608083808120
:100A7000826080830895CF93DF930DC08C859D8520
:100A800090936A0480936904CE0102960E94420307
:100A9000CE010E94550FC0916904D0916A0420973D
:100AA00021F088819981009749F3DF91CF910895D2
:100AB0001F920F920FB60F920BB60F9211242F9325
:100AC0003F934F935F936F937F938F939F93AF93D6
:100AD000BF93EF93FF93E0916904F0916A0430971C
:100AE00049F080819181019791838083009711F46F
:100AF0000E943B05FF91EF91BF91AF919F918F9124
:100B00007F916F915F914F913F912F910F900BBE0D
:100B10000F900FBE0F901F9018958EE090E00E94EE
:100B2000BF0E0895EF92FF920F931F93CF93DF9321
:100B3000F82EE92E8B010E948D05DC01FC01329616
:100B4000CF2DDE2D8AE0099001928150E1F71196B8
:100B50001C930E93C0916904D0916A04209729F4E4
:100B6000B0936A04A093690430C020E030E040E014
:100B700050E001C0EF0188819981480F591F40174B
:100B8000510734F4EC85FD859E01309799F701C03B
:100B9000FE012115310579F480819181801B910B33
:100BA000918380831D96FC93EE931C97B0936A0407
:100BB000A093690419C0309769F4041B150B1196B2
:100BC0001C930E93E901BD87AC871D961C921E9263
:100BD0001C970AC011961C921E92E901BD87AC8732
:100BE0001D96FC93EE931C97DF91CF911F910F916F
:100BF000FF90EF900895EF92FF920F931F93CF9382
:100C0000DF938AE090E00E94BC10C0916904D0910B
:100C10006A0400E010E084E2E82E83E0F82E20C0B1
:100C200088819981080F191F00D000D0EDB7FEB759
:100C30003196ADB7BEB71296FC92EE9211979383A0
:100C40008283158304830E94AA100C84DD85C02D45
:100C50008DB79EB706960FB6F8949EBF0FBE8DBF98
:100C60002097F1F68AE090E00E94BC10DF91CF91CE
:100C70001F910F91FF90EF90089509C0FC0124850A
:100C8000358530936A04209369040E94550F809142
:100C9000690490916A04009789F70895F8940E9476
:100CA000830778948823D1F3843011F090E008957D
:100CB0008FEF9FEF0895CF93C82F8A3019F48DE0FE
:100CC0000E945B06F89480911105882359F4C09323
:100CD000C60081E0809311050AC0789486EF8A955A
:100CE000F1F7F8948C2F0E94A0070097B1F3789445
:100CF00081E090E0CF91089580E393E090939F0589
:100D000080939E058EE393E09093A1058093A005C8
:100D10000E945007109211051092C50083E0809345
:100D2000C400E1ECF0E08081886080838081806491
:100D30008083808180618083808180688083089542
:100D4000CF93C82F8A3019F48DE00E94A0068091BD
:100D50001105882331F4C093C60081E0809311050A
:100D600003C08C2F0E94A007CF9108950E94DF0737
:100D700008951F920F920FB60F920BB60F92112487
:100D80002F933F934F935F936F937F938F939F9393
:100D9000AF93BF93EF93FF930E94C207882319F488
:100DA0001092110502C08093C600FF91EF91BF9190
:100DB000AF919F918F917F916F915F914F913F91F3
:100DC0002F910F900BBE0F900FBE0F901F90189594
:100DD0001F920F920FB60F920BB60F9211241F9312
:100DE0002F933F934F935F936F937F938F939F9333
:100DF000AF93BF93EF93FF93CF93DF93CDB7DEB75E
:100E00002A97DEBFCDBF1091C6001B3161F48091DF
:100E10004C0390914D0301968170907090934D0317
:100E200080934C0324C0143069F01D3009F41AE09B
:100E300020914C0330914D032115310519F0812F7C
:100E40000E94A006812F0E946107143011F01A3011
:100E500071F488E694E09A838983CE0103966FE269
:100E600073E00E941A10CE0101960E9442032A9656
:100E7000DEBFCDBFDF91CF91FF91EF91BF91AF91D9
:100E80009F918F917F916F915F914F913F912F91A2
:100E90001F910F900BBE0F900FBE0F901F901895D3
:100EA0001092570510925605109255051092540550
:100EB00010925905109258051092130510921205C0
:100EC0000895482F20915805309159052F5F3F4FC5
:100ED000C90160E470E00E94610E9C0180911205DE
:100EE000909113052817390759F03093590520932D
:100EF0005805265A3A4FF901408381E090E0089561
:100F000080E090E008958091120590911305209162
:100F10005805309159052817390779F0019660E492
:100F200070E00E94610E9093130580931205865A1B
:100F30009A4FFC01808190E0089580E090E0089550
:100F4000482F20915605309157052F5F3F4FC9011B
:100F500060E470E00E94610E9C01809154059091C4
:100F600055052817390759F0309357052093560532
:100F70002C5E3A4FF901408381E090E0089580E0D3
:100F800090E0089580915405909155052091560563
:100F9000309157052817390779F0019660E470E021
:100FA0000E94610E90935505809354058C5E9A4F74
:100FB000FC01808190E0089580E090E008958091A8
:100FC000120590911305209158053091590582170B
:100FD000930741F0865A9A4FFC01818190E08F730C
:100FE0009070089580E090E00895209A219A229AC6
:100FF00023988DB581608DBD80ED8CBD08952898B6
:101000000895289A08958EBD08951F920F920FB6E5
:101010000F920BB60F9211242F933F934F935F9330
:101020006F937F938F939F93AF93BF93EF93FF93B0
:10103000CF93DF93CDB7DEB72A97DEBFCDBF2EB5F6
:1010400087E094E09A83898300D000D0EDB7FEB7A3
:101050003196CE010396ADB7BEB712969C938E9390
:1010600011978EE493E093838283248315820E94F8
:10107000F1108DB79EB706960FB6F8949EBF0FBEBF
:101080008DBFCE0101960E9442032A96DEBFCDBFDE
:10109000DF91CF91FF91EF91BF91AF919F918F9190
:1010A0007F916F915F914F913F912F910F900BBE68
:1010B0000F900FBE0F901F901895CF92DF92EF9276
:1010C000FF920F931F936B017C0120E030E040E022
:1010D0005FE40E944B0B87FD11C0C701B60120E001
:1010E00030E040E05FE40E94120A0E94F30B8B01A3
:1010F0009C01005010402040304806C0C701B60196
:101100000E94F30B8B019C01B801C9011F910F9143
:10111000FF90EF90DF90CF900895A0E0B0E0E3E97A
:10112000F8E00C948A0EEC014B01FA0188818230C0
:1011300008F43EC1DB019C91923008F436C1843042
:1011400059F4943009F034C1998111968C9111971A
:10115000981709F027C12CC1943009F426C19230A8
:10116000A9F4823009F024C1CE0128E0DC010D9001
:10117000CD01DA010D92AD012150C1F7D4011196D4
:101180008C91119799818923818311C1823009F44F
:101190000CC1AA80BB80DB0112964D915C91139724
:1011A000CC80DD80EE80FF8014960D911D912D91F5
:1011B0003C911797C501841B950BDC0197FF04C078
:1011C000AA27BB27A81BB90BA032B1050CF067C03A
:1011D0001816190684F5280139010A2E04C07694E0
:1011E0006794579447940A94D2F741E050E060E046
:1011F00070E004C0440F551F661F771FAA95D2F7F1
:10120000415050406040704040235123622373237B
:1012100081E090E0A0E0B0E0411551056105710565
:1012200019F480E090E0DC018C019D01042915296E
:10123000262937293FC00097E9F1AA0EBB1E2601D7
:1012400037010A2E04C076946794579447940A9401
:10125000D2F741E050E060E070E004C0440F551F59
:10126000661F771FAA95D2F74150504060407040EA
:101270004C215D216E217F2181E090E0A0E0B0E073
:10128000411551056105710519F480E090E0DC011C
:101290006C017D01C428D528E628F7280BC04A1523
:1012A0005B0524F400E010E0980104C05A01CC244E
:1012B000DD2476018981D40111969C9111978917BB
:1012C00009F445C0882329F00C191D092E093F098E
:1012D00008C0D701C601801B910BA20BB30B8C0178
:1012E0009D0137FD04C01182B382A2820BC081E050
:1012F0008183B382A28230952095109501951F4F6E
:101300002F4F3F4F04831583268337830DC0880FEB
:10131000991FAA1FBB1F84839583A683B7838281ED
:10132000938101979383828384819581A681B7817C
:10133000AC01BD0141505040604070404F3F2FEF25
:1013400052072FEF62072FE3720708F30BC0818368
:10135000B382A2820C0D1D1D2E1D3F1D048315831B
:101360002683378383E0808344815581668177813A
:1013700077FF1DC0DB01CA0181709070A070B07052
:101380007695679557954795842B952BA62BB72B6C
:1013900084839583A683B783828193810196938307
:1013A000828305C0C1E5D3E003C0E40101C0EF01C1
:1013B000CE01CDB7DEB7E0E10C94A60EA0E2B0E01E
:1013C000E4EEF9E00C94980EDC01CB018D839E8352
:1013D000AF83B88729833A834B835C83CE0105961C
:1013E000BE01675E7F4F0E946E0DCE010196BE0169
:1013F0006F5E7F4F0E946E0DCE014996BE016F5EFB
:101400007F4FAE01475F5F4F0E948D080E94970C8F
:10141000462F572F682F792FCB01BA01A096E2E013
:101420000C94B40EA0E2B0E0E8E1FAE00C94980E5F
:10143000DC01CB018D839E83AF83B88729833A83F8
:101440004B835C83CE010596BE01675E7F4F0E9491
:101450006E0DCE010196BE016F5E7F4F0E946E0D34
:101460008A8991E089278A8BCE014996BE016F5EF9
:101470007F4FAE01475F5F4F0E948D080E94970C1F
:10148000462F572F682F792FCB01BA01A096E2E0A3
:101490000C94B40EA0E2B0E0E0E5FAE00C948A0E01
:1014A000DC01CB018D839E83AF83B88729833A8388
:1014B0004B835C83CE010596BE01675E7F4F0E9421
:1014C0006E0DCE010196BE016F5E7F4F0E946E0DC4
:1014D000998D923078F089898230C0F0943019F477
:1014E000823041F4CAC0843019F4923079F4C5C016
:1014F000923051F481E02A8D9A89291709F480E00D
:101500008A8FCE014996BBC0823051F481E02A8D8A
:101510009A89291709F480E08A8BCE014196AFC0E1
:101520004D8C5E8C6F8C78A00D891E892F89388D2B
:10153000E0E2F0E040E050E0BA0188249924540150
:10154000CC24DD247601C201817090700097D1F027
:10155000C00ED11EE21EF31EDB01CA01880D991DCB
:10156000AA1DBB1D41E050E060E070E0C016D1064E
:10157000E206F30618F040E050E0BA01480F591FA8
:101580006A1F7B1F880C991CAA1CBB1C37FF08C054
:1015900081E090E0A0E0B0E0882A992AAA2ABB2A3C
:1015A000000F111F221F331F76946794579447949E
:1015B000319749F68B8D9C8D2B893C89820F931F27
:1015C00002969C878B8781E02A8D9A89291709F4D6
:1015D00080E08A872B853C8517C0CA018170907096
:1015E000009761F0F694E794D794C79480E090E078
:1015F000A0E0B0E8C82AD92AEA2AFB2A769567959E
:10160000579547952F5F3F4F77FDE7CFC9010BC037
:10161000440F551F661F771FF7FC4160CC0CDD1C83
:10162000EE1CFF1C01974030A0E05A07A0E06A07BB
:10163000A0E47A0768F38B879C87DB01CA018F7768
:101640009070A070B07080349105A105B10561F46F
:1016500047FD0AC0C114D104E104F10429F0405C43
:101660005F4F6F4F7F4F40784D875E876F87788BD6
:1016700083E08987CE01099602C081E593E00E944C
:10168000970C462F572F682F792FCB01BA01A096C0
:10169000E0E10C94A60EA8E1B0E0E1E5FBE00C94DB
:1016A000980EDC01CB018D839E83AF83B88729839D
:1016B0003A834B835C83CE010596BE016F5E7F4FFC
:1016C0000E946E0DCE010196BE01675F7F4F0E94A2
:1016D0006E0D8989823058F08985823040F0CE01C4
:1016E0004196BE01675F7F4F0E94D70D01C08FEF0B
:1016F0006896E2E00C94B40ECF92DF92EF92FF92E4
:10170000CF93DF93CDB7DEB728970FB6F894DEBF3F
:101710000FBECDBF6B017C0183E08983D701C60179
:101720008827B7FD83959927AA27BB27282F8A8367
:10173000C114D104E104F10419F482E0898335C0B5
:101740008EE190E09C838B83222389F080E0C81691
:1017500080E0D80680E0E80680E8F80659F1F094C9
:10176000E094D094C094C11CD11CE11CF11CCD822A
:10177000DE82EF82F886C701B6010E94440C019711
:101780001816190694F4082E04C0CC0CDD1CEE1CAF
:10179000FF1C0A94D2F7CD82DE82EF82F8862EE11A
:1017A00030E0281B390B3C832B83CE0101960E942D
:1017B000970C04C060E070E080E09FEC382F292F88
:1017C000862F972FA32FB22FBC01CD0128960FB6DD
:1017D000F894DEBF0FBECDBFDF91CF91FF90EF90A9
:1017E000DF90CF900895ACE0B0E0E9EFFBE00C941F
:1017F000960EDC01CB0189839A83AB83BC83CE0137
:101800000196BE016B5F7F4F0E946E0D8D8182300D
:1018100069F1823058F1843039F02F81388537FDF5
:1018200025C02F31310544F08E81882319F100E065
:1018300010E020E030E822C08EE190E0821B930BA4
:1018400009851A852B853C8504C036952795179503
:1018500007958A95D2F78E81882381F0309520955F
:10186000109501951F4F2F4F3F4F08C000E010E02B
:10187000980104C00FEF1FEF2FEF3FE7B801C90138
:101880002C96E4E00C94B20ECF92DF92EF92FF928E
:101890000F931F938B019C01003080E0180781E0BB
:1018A000280780E0380750F40F3F11052105310566
:1018B00009F088F480E090E0DC0116C00030E0E040
:1018C0001E07E0E02E07E1E03E0750F480E190E0E3
:1018D000A0E0B0E009C088E090E0A0E0B0E004C083
:1018E00088E190E0A0E0B0E040E250E060E070E02D
:1018F000481B590B6A0B7B0B6801790104C0F694F5
:10190000E794D794C7948A95D2F7D701C601875A2E
:101910009C4FFC018081481B510961097109CA0172
:101920001F910F91FF90EF90DF90CF900895CF928D
:10193000DF92EF92FF920F931F93DC0114964D916B
:101940005D916D917C9117971196EC9111978C9107
:10195000823020F460618FEF90E0A5C0843009F4FC
:101960009DC0823009F494C041155105610571058F
:1019700009F491C012968D919C9113972FEF8238A4
:1019800092070CF059C022E83FEF281B390B2A318F
:10199000310564F56A017B01022E04C0F694E794D8
:1019A000D794C7940A94D2F781E090E0A0E0B0E029
:1019B00004C0880F991FAA1FBB1F2A95D2F7019751
:1019C000A109B10984239523A623B72341E050E060
:1019D00060E070E00097A105B10519F440E050E027
:1019E000BA014C295D296E297F2903C040E050E0EF
:1019F000BA01DB01CA018F779070A070B07080349B
:101A00009105A105B10539F447FF09C0405C5F4F5E
:101A10006F4F7F4F04C0415C5F4F6F4F7F4F81E03E
:101A200090E0403020E0520720E0620720E4720797
:101A300038F580E090E024C0803891057CF58A017B
:101A40009B010F7710702070307000341105210554
:101A5000310539F447FF09C0405C5F4F6F4F7F4F3E
:101A600004C0415C5F4F6F4F7F4F77FD03C08158CB
:101A70009F4F06C0769567955795479580589F4F1D
:101A800097E076956795579547959A95D1F70BC04E
:101A900080E090E005C080E090E005C08FEF90E02E
:101AA00040E050E0BA01982F979599279795A62F77
:101AB000AF77E795EE27E79586953A2F392B282FB4
:101AC0002E2B842F952FA32FB22FBC01CD011F9158
:101AD0000F91FF90EF90DF90CF900895DC01FB0114
:101AE0004C9111965C91119712968C911297682FD8
:101AF0006F7770E0982F991F9927991F13962C9153
:101B00001397822F880F892B90E0221F2227221FF4
:101B10002183009739F5411551056105710511F4CF
:101B200082E029C082E89FEF9383828327E0440FFD
:101B3000551F661F771F2A95D1F783E0808309C060
:101B4000440F551F661F771F8281938101979383EE
:101B50008283403080E0580780E0680780E478079F
:101B600078F320C08F3F910579F441155105610547
:101B7000710519F484E08083089564FF03C081E057
:101B8000808310C010820EC08F5790409383828351
:101B900083E0808387E0440F551F661F771F8A9577
:101BA000D1F7706444835583668377830895CF9318
:101BB000FC01DB019081923008F44CC08C918230A2
:101BC00008F448C0943069F42181843039F41196C6
:101BD0008C91119790E0821B910944C02223D1F18E
:101BE0003FC0843021F0923041F48230B1F111963F
:101BF0008C9111978823A1F12DC0C181823001F110
:101C000011968C911197C817D9F4828193811296FD
:101C10002D913C9113972817390794F08217930759
:101C2000BCF0448155816681778114968D919D9198
:101C30000D90BC91A02D84179507A607B70718F43F
:101C4000CC2341F00DC0481759076A077B0728F4D9
:101C5000CC2331F081E090E005C080E090E002C04C
:101C60008FEF9FEFCF910895CF93DF93CDB7DEB77E
:101C70002A970FB6F894DEBF0FBECDBF0E947C0638
:101C80000E9439030E9426050E94F50778940F925E
:101C90000F9286E392E0EDB7FEB7928381830E94B4
:101CA000AA100F900F90F894CE0101960E94820323
:101CB00078940097C1F3E981FA81CE0103961995D2
:101CC000F2CF97FB092E07260AD077FD04D00CD05F
:101CD00006D000201AF4709561957F4F0895F6F7AD
:101CE000909581959F4F0895AA1BBB1B51E107C09A
:101CF000AA1FBB1FA617B70710F0A61BB70B881F9C
:101D0000991F5A95A9F780959095BC01CD0108952A
:101D10002F923F924F925F926F927F928F929F92FB
:101D2000AF92BF92CF92DF92EF92FF920F931F93E9
:101D3000CF93DF93CDB7DEB7CA1BDB0B0FB6F8949A
:101D4000DEBF0FBECDBF19942A88398848885F84CA
:101D50006E847D848C849B84AA84B984C884DF804B
:101D6000EE80FD800C811B81AA81B981CE0FD11D2F
:101D70000FB6F894DEBF0FBECDBFED010895CF932F
:101D8000DF93AC018230910510F442E050E0E09125
:101D90009C05F0919D0520E030E0A0E0B0E024C07B
:101DA0008081918184179507D0F08417950771F48D
:101DB00082819381109729F013969C938E931297AA
:101DC0002CC090939D0580939C0527C0211531055B
:101DD00019F08217930718F49C01BD01EF0192815D
:101DE0008381DF01E92FF82F3097D1F621153105D6
:101DF000F9F0C901841B950B8430910580F48A8128
:101E00009B816115710521F0FB019383828304C0DE
:101E100090939D0580939C05FE01329642C0FE0181
:101E2000E80FF91F4193519302979983888339C032
:101E300080919A0590919B05009741F480915B04F5
:101E400090915C0490939B0580939A05209159048E
:101E500030915A042115310541F42DB73EB78091D8
:101E60005D0490915E04281B390BE0919A05F09176
:101E70009B05E217F30798F42E1B3F0B2417350739
:101E800070F0CA0102962817390748F08E0F9F1F7D
:101E900090939B0580939A054193519302C0E0E093
:101EA000F0E0CF01DF91CF9108950F931F93CF936F
:101EB000DF939C01009709F48CC0DC011297139604
:101EC0001C921E92129760919C0570919D05611560
:101ED000710589F48D919C911197820F931F209128
:101EE0009A0530919B052817390769F5B0939B0532
:101EF000A0939A056EC0FB0140E050E001C0FC01D8
:101F0000EA17FB0730F482819381AF010097B9F79C
:101F10001FC0E9012297FB83EA8308811981C90167
:101F2000800F911F8E179F0759F480819181800F38
:101F3000911F029699838883828193819B838A83F0
:101F40004115510529F4B0939D05A0939C0541C00E
:101F5000FA01B383A283C191D191EC0FFD1FAE179B
:101F6000BF0781F4F901929182918C0F9D1F029617
:101F7000DA0111969C938E938281938113969C93A0
:101F80008E931297E0E0F0E002C0FB01BC01DB01A0
:101F900012968D919C9113970097B9F7CB010296F9
:101FA0002D913C911197820F931F20919A053091AA
:101FB0009B052817390769F4309729F410929D057D
:101FC00010929C0502C01382128270939B0560934D
:101FD0009A05DF91CF911F910F910895FC018827F9
:101FE0009927E89421912032E9F3293010F02E301E
:101FF000C8F32B3241F02D3239F4689404C00E94AA
:102000004810820F911D219120532A30C0F31EF4F5
:10201000909581959F4F08954BE654E00E942110C2
:102020000895FB01DC018D91019080190110D9F315
:10203000990B0895FB01DC0101900D920020E1F75E
:102040000895FA01A191B081009719F41097E1F079
:10205000CD01DC01CD010D90002011F4C00113C0B1
:10206000FB012191222319F02015D9F7F3CFFB01B1
:102070002191201519F41E92119606C02223C1F752
:102080000D900020A1F7D001FA01A193B08308952B
:102090007AE0979F902D879F802D910D11240895B0
:1020A000CF92DF92EF92FF920F931F93CF93DF9324
:1020B0008C016A01FA01838180FF1AC01616170687
:1020C000BCF47B01E8010EC0C6010E943D13FFEF86
:1020D0008F3F9F0769F089930894E108F1088A30DF
:1020E000910521F021E0E216F10471F7188202C097
:1020F00000E010E0C801DF91CF911F910F91FF9098
:10210000EF90DF90CF9008950F931F93CF93DF93BD
:102110008C01E0919E05F0919F05838180FF12C0A4
:10212000E80180919E0590919F050E943D132FEF3D
:102130008F3F920739F089938A30910591F7219763
:10214000188202C000E010E0C801DF91CF911F911A
:102150000F910895CF93DF93CDB7DEB7FE0136968A
:10216000619171918091A0059091A105AF010E94AC
:102170002011DF91CF9108956091A0057091A10584
:102180000E947D1308950F931F93CF93DF938C01CB
:10219000E091A005F091A105838181FF1AC0C0E004
:1021A000D0E005C01995009711F0CFEFDFEFF801EF
:1021B00081918F016091A0057091A105DB011896B6
:1021C000ED91FC911997882369F78AE0199500979A
:1021D00011F0CFEFDFEFCE01DF91CF911F910F9183
:1021E00008950F931F93CF93DF93CDB7DEB72E974C
:1021F0000FB6F894DEBF0FBECDBF0E891F8986E0F3
:102200008C831A8309838FEF9FE79E838D83AE01B2
:10221000465E5F4FCE010196688D798D0E94201138
:10222000EF81F885E00FF11F10822E960FB6F8941B
:10223000DEBF0FBECDBFDF91CF911F910F910895EB
:102240002F923F924F925F926F927F928F929F92C6
:10225000AF92BF92CF92DF92EF92FF920F931F93B4
:10226000CF93DF93CDB7DEB72D970FB6F894DEBFCF
:102270000FBECDBF3C017D876C875A01FC011782E0
:102280001682838181FFC8C12E010894411C511C14
:10229000F3019381EC85FD8593FD859193FF8191F9
:1022A000FD87EC87882309F4B3C1853241F493FD9F
:1022B000859193FF8191FD87EC87853229F490E029
:1022C000B3010E947D13E4CFFF24EE2410E010320E
:1022D000B0F48B3269F08C3228F4803251F08332C2
:1022E00071F40BC08D3239F0803349F411602CC089
:1022F0001260146029C0186027C0106125C017FD46
:102300002EC0282F20532A3098F416FF08C08F2D96
:10231000880FF82EFF0CFF0CF80EF20E15C08E2D54
:10232000880FE82EEE0CEE0CE80EE20E10620CC0E8
:102330008E3221F416FD6CC1106406C08C3611F487
:10234000106802C0883659F4EC85FD8593FD8591AF
:1023500093FF8191FD87EC87882309F0B8CF982FF0
:102360009554933018F09052933038F424E030E0D4
:10237000A20EB31E3FE339830FC0833631F083379B
:1023800081F0833509F05AC022C0F501808189832C
:1023900022E030E0A20EB31E21E0C22ED12C420179
:1023A00014C092E0292E312C2A0C3B1CF5018080B0
:1023B000918016FF03C06F2D70E002C06FEF7FEFBA
:1023C000C4010E9432136C0151011F7715C082E0D5
:1023D000282E312C2A0C3B1CF5018080918016FFA1
:1023E00003C06F2D70E002C06FEF7FEFC4010E9449
:1023F00027136C011068510113FD1CC006C080E258
:1024000090E0B3010E947D13EA948E2D90E0C816EF
:10241000D906A8F30FC0F40117FD859117FF81912C
:102420004F0190E0B3010E947D13E110EA940894FB
:10243000C108D108C114D10471F7E7C0843611F086
:10244000893651F5F50117FF07C080819181A2817E
:10245000B38124E030E008C080819181AA2797FDF4
:10246000A095BA2F22E030E0A20EB31E012F0F7606
:10247000B7FF08C0B095A095909581959F4FAF4F3D
:10248000BF4F0068BC01CD01A2012AE030E00E94EC
:10249000A913D82ED4183FC0853721F41F7E2AE017
:1024A00030E020C0197F8F36A9F0803720F48835BE
:1024B00009F0AEC00BC0803721F0883709F0A8C002
:1024C00001C0106114FF09C0146007C014FF08C0E8
:1024D000166006C028E030E005C020E130E002C010
:1024E00020E132E0F50117FF07C060817181828130
:1024F000938144E050E006C06081718180E090E00B
:1025000042E050E0A40EB51EA2010E94A913D82EED
:10251000D418012F0F7706FF09C00E7FDF1430F4A7
:1025200004FF06C002FD04C00F7E02C01D2D01C0C5
:102530001F2D802F90E004FF0CC0FE01ED0DF11D5A
:102540002081203311F4097E09C002FF06C01E5FFE
:1025500005C086789070009709F01F5F802E99243F
:1025600003FD12C000FF0DC0FD2C1E1550F4FE0C23
:10257000F11A1E2D06C080E290E0B3010E947D1387
:102580001F5F1E15C0F304C01E1510F4E11A01C030
:10259000EE2484FE0FC080E390E0B3010E947D131F
:1025A00082FE1FC081FE03C088E590E010C088E76E
:1025B00090E00DC0C40186789070009791F081FC86
:1025C00002C080E201C08BE207FD8DE290E0B30122
:1025D0000E947D1306C080E390E0B3010E947D134A
:1025E000FA94DF14C0F3DA94F201ED0DF11D80814D
:1025F00090E0B3010E947D13DD20A9F706C080E2C0
:1026000090E0B3010E947D13EA94EE20C1F740CE22
:10261000F3018681978102C08FEF9FEF2D960FB651
:10262000F894DEBF0FBECDBFDF91CF911F910F9108
:10263000FF90EF90DF90CF90BF90AF909F908F90E2
:102640007F906F905F904F903F902F900895FC0186
:102650000590615070400110D8F7809590958E0FCD
:102660009F1F0895FC016150704001900110D8F740
:10267000809590958E0F9F1F0895CF93DF93EC0167
:102680002B8120FF35C026FF09C02F7B2B838E8135
:102690009F8101969F838E838A8128C022FF0FC06D
:1026A000E881F9818081992787FD9095009719F439
:1026B00020622B831DC03196F983E88311C0EA851F
:1026C000FB85CE01199597FF0BC02B813FEF8F3F04
:1026D000930711F480E101C080E2822B8B8308C054
:1026E0002E813F812F5F3F4F3F832E8390E002C0BA
:1026F0008FEF9FEFDF91CF9108950F931F93CF93AB
:10270000DF938C01EB018B8181FF1BC082FF0DC029
:102710002E813F818C819D812817390764F4E881DF
:10272000F9810193F983E88306C0E885F985802F54
:102730001995009731F48E819F8101969F838E8336
:1027400002C00FEF1FEFC801DF91CF911F910F91D2
:102750000895FA01AA27283051F1203181F1E89437
:102760006F936E7F6E5F7F4F8F4F9F4FAF4FB1E084
:102770003ED0B4E03CD0670F781F891F9A1FA11D7F
:10278000680F791F8A1F911DA11D6A0F711D811D80
:10279000911DA11D20D009F468943F912AE0269F45
:1027A00011243019305D3193DEF6CF010895462FA4
:1027B0004770405D4193B3E00FD0C9F7F6CF462F85
:1027C0004F70405D4A3318F0495D31FD40524193EE
:1027D00002D0A9F7EACFB4E0A695979587957795AB
:1027E0006795BA95C9F700976105710508959B0132
:1027F000AC010A2E06945795479537952795BA95BB
:10280000C9F7620F731F841F951FA01D0895F894C8
:02281000FFCFF8
:1028120025640025642069732061207072696D65EA
:10282200206E756D626572202121210A00636F7529
:102832006E743D25640A003E2020003E3E20002D9D
:102842002D3E2563200024200043757272656E744C
:102852002074656D7065726174757265206973208C
:102862002564206465677265652E0A00696E746569
:10287200727275707420666C6167007461736B5F4D
:10288200746337372829203A2063757272656E7433
:102892005F74656D7065726174757265202D3E207E
:1028A2002564206465677265652E0A007461736B26
:1028B2005F746337372829203A20756E6578706512
:1028C2006374656420737461746520696E20746139
:1028D200736B5F746337372E2E2E006C6F676F75C4
:1028E200742C20676F6F642062796520212121009A
:1028F20020090A0D002420007072696D6500746958
:102902006D6572002121212D3232320000212121F8
:102912002D33333300746331303437007463373707
:1029220000556E6B6E6F776E20636F6D6D616E64B6
:102932002E2E2E002D2D3E256428256429200000F0
:10294200000000010000000000004E060000000030
:102952000002000000005B06000000000100256488
:102962000000000000000000000001020203030357
:10297200030404040404040404050505050505050F
:1029820005050505050505050506060606060606EE
:1029920006060606060606060606060606060606D5
:1029A20006060606060606060607070707070707BE
:1029B20007070707070707070707070707070707A5
:1029C2000707070707070707070707070707070795
:1029D2000707070707070707070707070707070785
:1029E200070707070707070707080808080808086E
:1029F2000808080808080808080808080808080855
:102A02000808080808080808080808080808080844
:102A12000808080808080808080808080808080834
:102A22000808080808080808080808080808080824
:102A32000808080808080808080808080808080814
:102A42000808080808080808080808080808080804
:102A520008080808080808080808080808080808F4
:102A62000808080808080808080000A40520000053
:00000001FF
