:100000000C9472000C9494000C9494000C94940042
:100010000C9494000C9494000C9494000C94940010
:100020000C9494000C9494000C9494000C94940000
:100030000C9494000C9494000C9494000C949400F0
:100040000C9494000C9494000C9494000C949400E0
:100050000C9494000C9494000C9494000C949400D0
:100060000C9494000C9494000C9494000C94400113
:100070000C9494000C9494000C9494000C949400B0
:100080000C9494000C9494000C9494000C949400A0
:100090000C9494000C9494000C9494000C94940090
:1000A0000C9494000C9494000C9494000C94940080
:1000B0000C9494000C9494000C9494000C94940070
:1000C0000C9494000C9494000C9494000C94940060
:1000D0000C9494000C9494000C9494000C94940050
:1000E0000C94940011241FBECFEFD1E2DEBFCDBF30
:1000F00000E00CBF12E0A0E0B2E0E8E6F3E000E0D0
:100100000BBF02C007900D92A633B107D9F71BBEF3
:1001100012E0A6E3B2E001C01D92A937B107E1F7F2
:100120000E9484010C94B2010C9400008FEF809324
:100130000B0180930A01089510920B011092360270
:1001400008958FEF80930B0180933602089521E08C
:1001500030E002C0220F331F8A95E2F7209580918C
:10016000360228232093360220930B01089521E0C4
:1001700030E002C0220F331F8A95E2F780913602E9
:10018000822B8093360280930B0108958095809393
:10019000360280930B0108951092C50087E080938A
:1001A000C400E0ECF0E0808182608083E1ECF0E06C
:1001B00080818860808380818064808308950F932C
:1001C0001F93CF93DF93182F092FE82FF92FEF01FB
:1001D00009900020E9F72197CE1BDF0B80E00E94F9
:1001E000A700F89481E00E94A7002FE330E0A091DF
:1001F0003702B0913802A75CBD4FFD01019000208D
:10020000E9F73197EA1BFB0BC9018E1B9F0B8C177B
:100210009D0768F382E00E94A70060913702709109
:100220003802675C7D4F89E392E00E94AB0189E36D
:1002300092E0612F702F0E94A0011092380210925C
:1002400037028091330290913402009799F0109216
:100250003402109233028091370290913802FC01EF
:10026000E75CFD4F2081019690933802809337021E
:100270002093C6007894DF91CF911F910F9108953C
:100280001F920F920FB60F920BB60F9211242F935D
:100290008F939F93EF93FF93E0913702F091380291
:1002A000E75CFD4F2081222369F4109239021092FD
:1002B00038021092370281E090E0909334028093EC
:1002C000330216C02A3049F4E0913702F091380227
:1002D000E75CFD4F8DE0808309C0809137029091EB
:1002E0003802019690933802809337022093C6001B
:1002F000FF91EF919F918F912F910F900BBE0F90D7
:100300000FBE0F901F9018950E94CC000E9496007F
:100310000E94A1007894CAE0D0E080E092E00E94C0
:10032000DF008DE092E00E94DF008BE192E00E940E
:10033000DF00219791F78AE292E00E94DF00FFCF71
:10034000FB01DC010D900020E9F7119701900D925F
:100350000020E1F70895FB01DC0101900D920020DF
:08036000E1F70895F894FFCFC6
:1003680049206C6F766520796F752E0A00596F7574
:10037800206C6F7665206D652E0A004865206C6FCD
:10038800766573206865722E0A00456E6420212107
:06039800210A0001000033
:00000001FF
