:100000000C9472000C9494000C9494000C94940042
:100010000C9494000C9494000C9494000C94940010
:100020000C9494000C9494000C9494000C94940000
:100030000C9494000C9494000C9494000C949400F0
:100040000C9494000C9494000C9494000C949400E0
:100050000C9494000C9494000C9494000C949400D0
:100060000C9494000C94DD010C9494000C94AE015B
:100070000C9494000C9494000C9494000C949400B0
:100080000C9494000C9494000C9494000C949400A0
:100090000C9494000C9494000C9494000C94940090
:1000A0000C9494000C9494000C9494000C94940080
:1000B0000C9494000C9494000C9494000C94940070
:1000C0000C9494000C9494000C9494000C94940060
:1000D0000C9494000C9494000C9494000C94940050
:1000E0000C94940011241FBECFEFD1E2DEBFCDBF30
:1000F00000E00CBF12E0A0E0B2E0ECE7FEE000E0C0
:100100000BBF02C007900D92A839B107D9F71BBEEB
:1001100013E0A8E9B2E001C01D92AA32B107E1F7ED
:100120000E94C1020C943C070C940000CF93DF9313
:10013000FC0162E070E00E945F03EB0122E030E02E
:1001400008C0CF01B9010E945F03009741F02F5F03
:100150003F4FC217D307ACF781E090E002C080E0C8
:1001600090E0DF91CF910895CF92DF92EF92FF92CE
:100170000F931F93CF93DF937C0100E010E0C2E068
:10018000D0E020E0C22E22E0D22E16C0CE010E9486
:100190009600009781F00F5F1F4F00D00F92EDB7D0
:1001A000FEB7D282C182D483C3830E9415040F900C
:1001B0000F900F900F902196EC16FD063CF700D0A3
:1001C0000F928BE192E0EDB7FEB7928381831483A7
:1001D00003830E9415040F900F900F900F90DF91F2
:1001E000CF911F910F91FF90EF90DF90CF900895E6
:1001F0008FEF80930B0180930A01089510920B01F9
:100200001092980208958FEF80930B0180939802CB
:10021000089521E030E002C0220F331F8A95E2F7F3
:1002200020958091980228232093980220930B0117
:10023000089521E030E002C0220F331F8A95E2F7D3
:1002400080919802822B8093980280930B010895ED
:1002500080958093980280930B01089500D00F92AF
:10026000EDB7FEB7319685E292E0ADB7BEB7129614
:100270009C938E93119780919802828313820E949F
:1002800015040F900F900F900F900895F8940E940E
:10029000470278948823D1F3843011F090E00895D8
:1002A0008FEF9FEF0895CF93C82F8A3019F48DE018
:1002B0000E945301F89480919B02882359F4C093C3
:1002C000C60081E080939B020AC0789486EF8A95ED
:1002D000F1F7F8948C2F0E9481020097B1F3789483
:1002E00081E090E0CF91089589E792E09093250313
:1002F0008093240387E892E090932703809326035A
:100300000E94140210929B021092C50083E0809319
:10031000C400E1ECF0E080818860808380818064AB
:10032000808380818061808380818068808308955C
:10033000CF93C82F8A3019F48DE00E9498018091E4
:100340009B02882331F4C093C60081E080939B0216
:1003500003C08C2F0E948102CF9108951F920F92AB
:100360000FB60F920BB60F9211242F933F934F931A
:100370005F936F937F938F939F93AF93BF93EF930D
:10038000FF930E946402882319F410929B0202C01A
:100390008093C600FF91EF91BF91AF919F918F9194
:1003A0007F916F915F914F913F912F910F900BBE75
:1003B0000F900FBE0F901F9018951F920F920FB6BF
:1003C0000F920BB60F9211242F933F934F935F938D
:1003D0006F937F938F939F93AF93BF93CF93EF933D
:1003E000FF93C091C600C43041F0CD3009F4CAE09B
:1003F0008C2F0E949801C83019F08C2F0E94250282
:10040000FF91EF91CF91BF91AF919F918F917F918C
:100410006F915F914F913F912F910F900BBE0F9075
:100420000FBE0F901F9018951092E1021092E002FB
:100430001092DF021092DE021092E3021092E202AA
:1004400010929D0210929C020895482F2091E20282
:100450003091E3022F5F3F4FC90160E470E00E94DA
:100460005F039C0180919C0290919D02281739079F
:1004700059F03093E3022093E2022C513D4FF901F1
:10048000408381E090E0089580E090E008958091BD
:100490009C0290919D022091E2023091E302281784
:1004A000390779F0019660E470E00E945F03909351
:1004B0009D0280939C028C519D4FFC01808190E0B5
:1004C000089580E090E008958091DE029091DF022F
:1004D0002091E0023091E1022817390779F0019666
:1004E00060E470E00E945F039093DF028093DE027D
:1004F00082569D4FFC01808190E0089580E090E05D
:100500000895482F8830E1F40E94640200D00F92D1
:1005100025E932E0EDB7FEB73283218394838383EC
:100520000E9415048091E0029091E102019790935E
:10053000E1028093E0020F900F900F900F901BC08C
:100540002091E0023091E1022F5F3F4FC90160E44A
:1005500070E00E945F039C018091DE029091DF02B7
:100560002817390759F03093E1022093E002225610
:100570003D4FF901408381E090E0089580E090E0F4
:100580000895CF93DF93CDB7DEB7C058D0400FB6F4
:10059000F894DEBF0FBECDBF0E9474010E94F80028
:1005A00078948AE2882E82E0982E0F920F92EDB70F
:1005B000FEB7928281820E9415040F900F904091A5
:1005C000240350912503CE01019660E870E00E945B
:1005D000E103009709F46EC0CE0101966DE272E06E
:1005E0000E94A4038C01009701F380E090E063E394
:1005F00072E00E94A4037C0180E090E063E372E07B
:100600000E94A4036C01C8010E942704C8016BE387
:1006100072E00E94A903009729F480ED97E00E9400
:10062000B400C3CFC80161E472E00E94A90300973F
:10063000E1F5E114F10419F40E942E01B6CFC701CF
:1006400065E472E00E94A9035C01009751F4C601C1
:1006500068E472E00E94A903009719F40E94FE006A
:10066000A4CFC7016CE472E00E94A9038C0100973B
:1006700051F4C60168E472E00E94A903009719F4DE
:100680000E94030192CFA114B10431F4C6010E946B
:1006900086030E94090189CF0115110531F4C601B5
:1006A0000E9486030E94190180CF80E592E00E949B
:1006B00027047BCF84E692E00E942704FFCF97FBBC
:1006C000092E07260AD077FD04D00CD006D00020D2
:1006D0001AF4709561957F4F0895F6F7909581957E
:1006E0009F4F0895AA1BBB1B51E107C0AA1FBB1F48
:1006F000A617B70710F0A61BB70B881F991F5A95AE
:10070000A9F780959095BC01CD010895FC0188273B
:100710009927E89421912032E9F3293010F02E3006
:10072000C8F32B3241F02D3239F4689404C00E9492
:10073000D903820F911D219120532A30C0F31EF45A
:10074000909581959F4F089549E952E00E94B20328
:100750000895FB01DC018D91019080190110D9F3FE
:10076000990B0895FA01A191B081009719F410979F
:10077000E1F0CD01DC01CD010D90002011F4C001AC
:1007800013C0FB012191222319F02015D9F7F3CFD3
:10079000FB012191201519F41E92119606C0222307
:1007A000C1F70D900020A1F7D001FA01A193B08309
:1007B00008957AE0979F902D879F802D910D1124A9
:1007C0000895CF92DF92EF92FF920F931F93CF93F2
:1007D000DF938C016A01FA01838180FF1AC016162B
:1007E0001706BCF47B01E8010EC0C6010E94720628
:1007F000FFEF8F3F9F0769F089930894E108F108A4
:100800008A30910521F021E0E216F10471F7188297
:1008100002C000E010E0C801DF91CF911F910F915D
:10082000FF90EF90DF90CF900895CF93DF93CDB7F7
:10083000DEB7FE0136966191719180912603909109
:100840002703AF010E945504DF91CF9108950F93C4
:100850001F93CF93DF938C01E0912603F091270340
:10086000838181FF1AC0C0E0D0E005C019950097D0
:1008700011F0CFEFDFEFF80181918F016091260336
:1008800070912703DB011896ED91FC91199788234D
:1008900069F78AE01995009711F0CFEFDFEFCE01ED
:1008A000DF91CF911F910F9108952F923F924F9218
:1008B0005F926F927F928F929F92AF92BF92CF92F0
:1008C000DF92EF92FF920F931F93CF93DF93CDB7F9
:1008D000DEB72D970FB6F894DEBF0FBECDBF3C013B
:1008E0007D876C875A01FC0117821682838181FF04
:1008F000C8C12E010894411C511CF3019381EC8561
:10090000FD8593FD859193FF8191FD87EC87882379
:1009100009F4B3C1853241F493FD859193FF819130
:10092000FD87EC87853229F490E0B3010E94B2067E
:10093000E4CFFF24EE2410E01032B0F48B3269F0E3
:100940008C3228F4803251F0833271F40BC08D3236
:1009500039F0803349F411602CC01260146029C052
:10096000186027C0106125C017FD2EC0282F205306
:100970002A3098F416FF08C08F2D880FF82EFF0C30
:10098000FF0CF80EF20E15C08E2D880FE82EEE0C1F
:10099000EE0CE80EE20E10620CC08E3221F416FD51
:1009A0006CC1106406C08C3611F4106802C0883621
:1009B00059F4EC85FD8593FD859193FF8191FD8729
:1009C000EC87882309F0B8CF982F9554933018F00E
:1009D0009052933038F424E030E0A20EB31E3FE38F
:1009E00039830FC0833631F0833781F0833509F0C6
:1009F0005AC022C0F5018081898322E030E0A20E36
:100A0000B31E21E0C22ED12C420114C092E0292E47
:100A1000312C2A0C3B1CF5018080918016FF03C00D
:100A20006F2D70E002C06FEF7FEFC4010E94670678
:100A30006C0151011F7715C082E0282E312C2A0C41
:100A40003B1CF5018080918016FF03C06F2D70E084
:100A500002C06FEF7FEFC4010E945C066C0110685A
:100A6000510113FD1CC006C080E290E0B3010E945A
:100A7000B206EA948E2D90E0C816D906A8F30FC0EE
:100A8000F40117FD859117FF81914F0190E0B301AB
:100A90000E94B206E110EA940894C108D108C1147A
:100AA000D10471F7E7C0843611F0893651F5F501AC
:100AB00017FF07C080819181A281B38124E030E0DB
:100AC00008C080819181AA2797FDA095BA2F22E0C6
:100AD00030E0A20EB31E012F0F76B7FF08C0B0950D
:100AE000A095909581959F4FAF4FBF4F0068BC0177
:100AF000CD01A2012AE030E00E94DE06D82ED418F3
:100B00003FC0853721F41F7E2AE030E020C0197FE6
:100B10008F36A9F0803720F4883509F0AEC00BC0BD
:100B2000803721F0883709F0A8C001C0106114FF98
:100B300009C0146007C014FF08C0166006C028E092
:100B400030E005C020E130E002C020E132E0F501F4
:100B500017FF07C0608171818281938144E050E07A
:100B600006C06081718180E090E042E050E0A40E18
:100B7000B51EA2010E94DE06D82ED418012F0F77D1
:100B800006FF09C00E7FDF1430F404FF06C002FD2B
:100B900004C00F7E02C01D2D01C01F2D802F90E0CC
:100BA00004FF0CC0FE01ED0DF11D2081203311F476
:100BB000097E09C002FF06C01E5F05C086789070DE
:100BC000009709F01F5F802E992403FD12C000FFDB
:100BD0000DC0FD2C1E1550F4FE0CF11A1E2D06C082
:100BE00080E290E0B3010E94B2061F5F1E15C0F3C1
:100BF00004C01E1510F4E11A01C0EE2484FE0FC0DB
:100C000080E390E0B3010E94B20682FE1FC081FE25
:100C100003C088E590E010C088E790E00DC0C401F3
:100C200086789070009791F081FC02C080E201C04C
:100C30008BE207FD8DE290E0B3010E94B20606C090
:100C400080E390E0B3010E94B206FA94DF14C0F38F
:100C5000DA94F201ED0DF11D808190E0B3010E9464
:100C6000B206DD20A9F706C080E290E0B3010E9441
:100C7000B206EA94EE20C1F740CEF3018681978157
:100C800002C08FEF9FEF2D960FB6F894DEBF0FBE18
:100C9000CDBFDF91CF911F910F91FF90EF90DF902B
:100CA000CF90BF90AF909F908F907F906F905F900C
:100CB0004F903F902F900895FC0105906150704037
:100CC0000110D8F7809590958E0F9F1F0895FC0115
:100CD0006150704001900110D8F7809590958E0F6B
:100CE0009F1F0895CF93DF93EC012B8120FF35C028
:100CF00026FF09C02F7B2B838E819F8101969F83C6
:100D00008E838A8128C022FF0FC0E881F98180810B
:100D1000992787FD9095009719F420622B831DC0B9
:100D20003196F983E88311C0EA85FB85CE011995D8
:100D300097FF0BC02B813FEF8F3F930711F480E1AA
:100D400001C080E2822B8B8308C02E813F812F5F00
:100D50003F4F3F832E8390E002C08FEF9FEFDF91E4
:100D6000CF9108950F931F93CF93DF938C01EB01E5
:100D70008B8181FF1BC082FF0DC02E813F818C8142
:100D80009D812817390764F4E881F9810193F9837B
:100D9000E88306C0E885F985802F1995009731F41E
:100DA0008E819F8101969F838E8302C00FEF1FEF7C
:100DB000C801DF91CF911F910F910895FA01AA27E1
:100DC000283051F1203181F1E8946F936E7F6E5F8E
:100DD0007F4F8F4F9F4FAF4FB1E03ED0B4E03CD03C
:100DE000670F781F891F9A1FA11D680F791F8A1F1F
:100DF000911DA11D6A0F711D811D911DA11D20D086
:100E000009F468943F912AE0269F11243019305D3F
:100E10003193DEF6CF010895462F4770405D419330
:100E2000B3E00FD0C9F7F6CF462F4F70405D4A337D
:100E300018F0495D31FD4052419302D0A9F7EACF45
:100E4000B4E0A6959795879577956795BA95C9F774
:100E500000976105710508959B01AC010A2E069467
:100E60005795479537952795BA95C9F7620F731F20
:0C0E7000841F951FA01D0895F894FFCF6B
:100E7C0025642069732061207072696D652C206E69
:100E8C00756D626572202121210A00636F756E7485
:100E9C003D25640A00252E3278002420000A0D0915
:100EAC002020000A0D0920202020007072696D6539
:100EBC00006C6564006F6E00616C6C006F666600A0
:100ECC00556E6B6E6F776E20636F6D6D616E642EF9
:100EDC002E2E20006C6F676F75742C20676F6F64FB
:100EEC002062796520212121000000000100000012
:100EFC00000000460100000000000200000000534A
:080F0C00010000000025640053
:00000001FF
