:100000000C9472000C9494000C9494000C94940042
:100010000C9494000C9494000C9494000C94940010
:100020000C9494000C9494000C9494000C94940000
:100030000C9494000C9494000C9494000C94150669
:100040000C9494000C9494000C9494000C949400E0
:100050000C9494000C9494000C9494000C949400D0
:100060000C9449030C94A5070C9494000C94760707
:100070000C9494000C94AB000C9494000C94940099
:100080000C9494000C9494000C9494000C949400A0
:100090000C9494000C9494000C9494000C94940090
:1000A0000C9494000C9494000C9494000C94940080
:1000B0000C9494000C9494000C9494000C94940070
:1000C0000C9494000C9494000C9494000C94940060
:1000D0000C9494000C9494000C9494000C94940050
:1000E0000C94940011241FBECFEFD1E2DEBFCDBF30
:1000F00000E00CBF14E0A0E0B2E0E6E9F9E200E0C5
:100100000BBF02C007900D92A03FB107D9F71BBEED
:1001100016E0A0EFB4E001C01D92A433B107E1F7EF
:100120000E94F60E0C94C9140C940000809880E88C
:1001300080937C000895EAE7F0E080818068808306
:100140008DED90E00197F1F7808188608083808158
:100150008064808308951F920F920FB60F920BB6A2
:100160000F9211240F931F932F933F934F935F93FD
:100170006F937F938F939F93AF93BF93EF93FF936F
:10018000CF93DF93CDB7DEB72897DEBFCDBF809189
:10019000780090917900EAE7F0E020812F772083C2
:1001A00000D000D0EDB7FEB731968E010F5F1F4F24
:1001B000ADB7BEB712961C930E93119720E032E0B4
:1001C000338322839370958384830E94B3118DB708
:1001D0009EB706960FB6F8949EBF0FBE8DBFC8019E
:1001E0000E941F042896DEBFCDBFDF91CF91FF9103
:1001F000EF91BF91AF919F918F917F916F915F919F
:100200004F913F912F911F910F910F900BBE0F9027
:100210000FBE0F901F901895CF93DF93FC0162E003
:1002200070E00E94230FEB0122E030E008C0CF0114
:10023000B9010E94230F009741F02F5F3F4FC21773
:10024000D307ACF781E090E002C080E090E0DF915E
:10025000CF910895CF92DF92EF92FF920F931F9369
:10026000CF93DF93009721F00E94B0107C0104C06F
:1002700090EDE92E97E0F92EC2E0D0E000E010E02A
:1002800083E0C82E82E0D82E16C0CE010E940C0159
:10029000009781F00F5F1F4F00D00F92EDB7FEB7B0
:1002A000D282C182D483C3830E946C110F900F90BD
:1002B0000F900F902196EC16FD063CF700D00F92A0
:1002C0008DE192E0EDB7FEB79283818314830383BF
:1002D0000E946C110F900F900F900F90DF91CF91B3
:1002E0001F910F91FF90EF90DF90CF900895EF92C4
:1002F000FF921F93CF93DF93CDB7DEB728970FB64A
:10030000F894DEBF0FBECDBF009719F0FC0110813D
:1003100001C011E627E2E22E22E0F22E0F920F92A8
:10032000EDB7FEB7F282E1820E946C110F900F9040
:1003300040912E0650912F06CE01019668E070E0A4
:100340000E9412110097A1F00E948D022981FC01E8
:1003500020831182183619F0143739F403C00E9433
:100360009502DCCF0E94AA02D9CF0E94C102D6CF4B
:100370000E94FB020E94280328960FB6F894DEBF65
:100380000FBECDBFDF91CF911F91FF90EF900895E9
:100390000F931F93CF93DF93CDB7DEB762970FB65E
:1003A000F894DEBF0FBECDBF0BE212E00F920F92AA
:1003B000EDB7FEB7128301830E946C110F900F906E
:1003C00040912E0650912F06CE01019668E070E014
:1003D0000E941211009761F0CE0101960E94B010A8
:1003E000BC01009729F0CE0109960E944F06DECF8E
:1003F0000E94B8060E94FA0662960FB6F894DEBF15
:100400000FBECDBFDF91CF911F910F910895CF9275
:10041000DF92EF92FF920F931F93CF93DF9300979A
:1004200041F0FC012081222321F00E94B0108C01B8
:1004300002C000ED17E0EE24FF24C2E0D0E033E07C
:10044000C32E32E0D32E17C0CE010E940C010097BC
:1004500089F00894E11CF11C00D00F92EDB7FEB7B3
:10046000D282C182D483C3830E946C110F900F90FB
:100470000F900F9021960C171D0734F700D00F92A4
:100480008DE192E0EDB7FEB792838183F482E3823F
:100490000E946C110F900F900F900F90DF91CF91F1
:1004A0001F910F91FF90EF90DF90CF9008958FEF05
:1004B00080930B0180930A01089510920B01109212
:1004C000F00408958FEF80930B018093F00408955A
:1004D00021E030E002C0220F331F8A95E2F7209519
:1004E0008091F00428232093F00420930B010895B9
:1004F00021E030E002C0220F331F8A95E2F780919D
:10050000F004822B8093F00480930B010895809572
:100510008093F00480930B01089584E090E00E94A2
:10052000810F08950E9417100895FC018091F10435
:100530009091F204009739F4F093F204E093F104FF
:1005400013821282089593838283F093F204E093DE
:10055000F1040895E091F104F091F204309731F440
:100560009093F2048093F10408C0F9012281338151
:1005700021153105D1F793838283FC011382128206
:100580000895CF93DF93FC01A091F104B091F204A0
:10059000109749F0608171813A2F2B2FC0E0D0E095
:1005A000582F4F2F1BC09093F2048093F1041382B5
:1005B00012821EC0209721F4328323839A0106C041
:1005C0008A819B8193838283FB83EA8312968D9138
:1005D0009C911397009741F0ED01DC018D919C9166
:1005E00011978617970734F33093F1042093F204A0
:1005F000DF91CF9108950F931F93CF93DF938AE0FC
:1006000090E00E947E11C091F104D091F2040FE2BB
:1006100012E013C000D00F92EDB7FEB71283018332
:1006200088819981948383830E946C110A80DB8185
:10063000C02D0F900F900F900F90209759F78AE0E0
:1006400090E00E947E11DF91CF911F910F9108954C
:1006500009C0FC01228133813093F2042093F1041C
:100660000E9417108091F1049091F204009789F78D
:100670000895209A219A229A23988DB581608DBD84
:1006800080ED8CBD089528980895289A08958EBD10
:1006900008951F920F920FB60F920BB60F9211246E
:1006A0002F933F934F935F936F937F938F939F937A
:1006B000AF93BF93EF93FF93CF93DF93CDB7DEB7A5
:1006C0002A97DEBFCDBF2EB58FE694E09A8389834B
:1006D00000D000D0EDB7FEB73196CE010396ADB78E
:1006E000BEB712969C938E93119789E392E0938301
:1006F0008283248315820E94B3118DB79EB706961C
:100700000FB6F8949EBF0FBE8DBFCE0101960E941A
:10071000AA032A96DEBFCDBFDF91CF91FF91EF9163
:10072000BF91AF919F918F917F916F915F914F9109
:100730003F912F910F900BBE0F900FBE0F901F9007
:1007400018951092FE041092FD041092A0051092CC
:100750009F050895CF93DF93482FE92F8091FD04E3
:100760009091FE04C0919F05D091A005019620E1D3
:1007700030E0B9010E94230F8C179D0731F1809161
:100780009F059091A0050196B9010E94230F9093B7
:10079000FE048093FD048091FD049091FE04DC0131
:1007A000AA0FBB1F63E0880F991F6A95E1F7A80F96
:1007B000B91FA150BB4FC42FDE2F8AE009900D92C4
:1007C0008150E1F781E090E002C080E090E0DF91AD
:1007D000CF9108959C014091FD045091FE048091B9
:1007E0009F059091A0054817590731F180919F0509
:1007F0009091A005019660E170E00E94230F909314
:10080000A00580939F0580919F059091A005FC0114
:10081000EE0FFF1FA3E0880F991FAA95E1F7E80FDD
:10082000F91FD901E150FB4F8AE001900D928150F0
:10083000E1F781E090E0089580E090E00895FC0108
:100840002081222319F50E949B0081E090E0909383
:10085000F4048093F3048091F3049091F4040097DE
:10086000D1F700D00F928CE392E0EDB7FEB7928300
:1008700081838091F5049091F604948383830E9490
:100880006C110F900F900F900F9008950E94B01070
:100890009C01B901882777FD8095982F0E943E0C16
:1008A00029E030EF4CE85AE30E940C0B20E030E0E6
:1008B0004AE754E40E940C0B0E94B50CDC01CB010A
:1008C000845F91406AE070E00E94230F7093F60409
:1008D0006093F5041092F4041092F3040895DC017F
:1008E0002C912223A9F481E08093F7040E94430312
:1008F00080E00E9447030F920F928FE592E0EDB7E0
:10090000FEB7928381830E946C110F900F9008951F
:100910002091F704213019F02230D9F509C0109246
:10092000F80482E08093F70480E00E944703089572
:100930000E94B0106091F804682B669566956695E4
:1009400070E080E090E00E943E0C20E030E040E863
:100950005DE30E940C0B0E941F096093F8040E9443
:10096000450300D00F92EDB7FEB731968EE692E0C8
:10097000ADB7BEB712969C938E9311978091F804F1
:10098000828313820E946C110F900F900F900F9032
:1009900008950E9445038FE992E00E948511089511
:1009A000CF93DF930E94B70880E90E94D108882383
:1009B00089F480E00E94D108882329F00E94C408AD
:1009C00085EF92E00BC00E94B70881E90E94D10830
:1009D000882339F00E94C4088EEC92E00E948511B1
:1009E00025C080E00E94F908C82F81E00E94F90824
:1009F0003C2F20E0C82FD0E0C22BD32BCC0FCD2F23
:100A0000CC1FDD0B0E94C40800D00F928EE193E052
:100A1000EDB7FEB792838183D695C795D483C38300
:100A20000E946C110F900F900F900F90DF91CF915B
:100A30000895AF92BF92CF92DF92EF92FF920F9301
:100A40001F93CF93DF93CDB7DEB7CA54D0400FB614
:100A5000F894DEBF0FBECDBF0E947307009709F464
:100A6000A0C0CE010B960E944611009729F484E5A0
:100A700093E00E948511FFCFCE010B9669E673E0EB
:100A80000E94CE108C0180E090E069E673E00E9445
:100A9000CE107C0180E090E069E673E00E94CE1009
:100AA0005C0180E090E069E673E00E94CE106C018A
:100AB0000115110509F469C0C80161E773E00E94DE
:100AC000D310009721F4C7010E9407025EC0C8013D
:100AD00067E773E00E94D310009779F5E114F10401
:100AE00019F48DE793E04FC0C7010E94B0108C014C
:100AF000C50161E773E00E94D3100097D9F487E045
:100B000092E09A838983CE010396C114D10411F037
:100B1000B60102C065E873E00E94DC10F894C801D9
:100B200060E071E00E94230FCE0101960E944F0603
:100B300078942BC086E893E026C0C8016EE873E085
:100B40000E94D310009729F485E893E00E941F04C7
:100B50001CC0C80165E973E00E94D310009729F416
:100B600085E893E00E946F0410C0C8016AE973E051
:100B70000E94D310009729F485E893E00E94D004E6
:100B800004C084EA93E00E9485110F920F928EE6D2
:100B900093E0EDB7FEB7928381830E946C110F90B2
:100BA0000F90C65BDF4F0FB6F894DEBF0FBECDBF10
:100BB000DF91CF911F910F91FF90EF90DF90CF9039
:100BC000BF90AF9008951092B200E6EBF0E0808104
:100BD00080628083E0E7F0E0808181608083E1EBE8
:100BE000F0E08081816080838081826080830895CD
:100BF000CF93DF930DC08C859D859093FA048093ED
:100C0000F904CE0102960E94AA03CE010E94171099
:100C1000C091F904D091FA04209721F0888199813C
:100C2000009749F3DF91CF9108951F920F920FB66D
:100C30000F920BB60F9211242F933F934F935F9314
:100C40006F937F938F939F93AF93BF93EF93FF9394
:100C5000E091F904F091FA04309749F08081918194
:100C6000019791838083009711F40E94F805FF910A
:100C7000EF91BF91AF919F918F917F916F915F9114
:100C80004F913F912F910F900BBE0F900FBE0F9081
:100C90001F9018958EE090E00E94810F0895EF92CA
:100CA000FF920F931F93CF93DF93F82EE92E8B01C2
:100CB0000E944A06DC01FC013296CF2DDE2D8AE02F
:100CC000099001928150E1F711961C930E93C09107
:100CD000F904D091FA04209729F4B093FA04A09370
:100CE000F90430C020E030E040E050E001C0EF0106
:100CF00088819981480F591F4017510734F4EC85BA
:100D0000FD859E01309799F701C0FE01211531053F
:100D100079F480819181801B910B918380831D9652
:100D2000FC93EE931C97B093FA04A093F90419C0B6
:100D3000309769F4041B150B11961C930E93E9016F
:100D4000BD87AC871D961C921E921C970AC01196F7
:100D50001C921E92E901BD87AC871D96FC93EE9311
:100D60001C97DF91CF911F910F91FF90EF90089505
:100D7000EF92FF920F931F93CF93DF938AE090E05F
:100D80000E947E11C091F904D091FA0400E010E0B5
:100D900087EBE82E83E0F82E20C088819981080F28
:100DA000191F00D000D0EDB7FEB73196ADB7BEB772
:100DB0001296FC92EE92119793838283158304839B
:100DC0000E946C110C84DD85C02D8DB79EB70696F0
:100DD0000FB6F8949EBF0FBE8DBF2097F1F68AE044
:100DE00090E00E947E11DF91CF911F910F91FF90B3
:100DF000EF90089509C0FC01248535853093FA04ED
:100E00002093F9040E9417108091F9049091FA043C
:100E1000009789F70895F8940E94400878948823F1
:100E2000D1F3843011F090E008958FEF9FEF089593
:100E3000CF93C82F8A3019F48DE00E941807F894D8
:100E40008091A105882359F4C093C60081E0809366
:100E5000A1050AC0789486EF8A95F1F7F8948C2F53
:100E60000E945D080097B1F3789481E090E0CF9103
:100E7000089583EC93E090932F0680932E0681EDE6
:100E800093E090933106809330060E940D081092F3
:100E9000A1051092C50083E08093C400E1ECF0E06E
:100EA000808188608083808180648083808180618C
:100EB00080838081806880830895CF93C82F8A3093
:100EC00019F48DE00E945D078091A105882331F41B
:100ED000C093C60081E08093A10503C08C2F0E94BF
:100EE0005D08CF9108950E949C0808951F920F926B
:100EF0000FB60F920BB60F9211242F933F934F937F
:100F00005F936F937F938F939F93AF93BF93EF9371
:100F1000FF930E947F08882319F41092A10502C054
:100F20008093C600FF91EF91BF91AF919F918F91F8
:100F30007F916F915F914F913F912F910F900BBED9
:100F40000F900FBE0F901F9018951F920F920FB623
:100F50000F920BB60F9211241F932F933F934F9331
:100F60005F936F937F938F939F93AF93BF93EF9311
:100F7000FF93CF93DF93CDB7DEB72A97DEBFCDBF08
:100F80001091C6001B3161F48091DF039091E00362
:100F90000196817090709093E0038093DF0324C0EA
:100FA000143069F01D3009F41AE02091DF0330910C
:100FB000E0032115310519F0812F0E945D07812F73
:100FC0000E941E08143011F01A3071F489E195E086
:100FD0009A838983CE01039662EC73E00E94DC1051
:100FE000CE0101960E94AA032A96DEBFCDBFDF91F3
:100FF000CF91FF91EF91BF91AF919F918F917F9191
:101000006F915F914F913F912F911F910F900BBE68
:101010000F900FBE0F901F9018951092E705109239
:10102000E6051092E5051092E4051092E90510928C
:10103000E8051092A3051092A2050895482F20916B
:10104000E8053091E9052F5F3F4FC90160E470E08A
:101050000E94230F9C018091A2059091A30528175F
:10106000390759F03093E9052093E80526513A4FA6
:10107000F901408381E090E0089580E090E00895D8
:101080008091A2059091A3052091E8053091E90592
:101090002817390779F0019660E470E00E94230F69
:1010A0009093A3058093A20586519A4FFC018081FD
:1010B00090E0089580E090E00895482F2091E605A3
:1010C0003091E7052F5F3F4FC90160E470E00E9457
:1010D000230F9C018091E4059091E50528173907BD
:1010E00059F03093E7052093E6052C553A4FF90166
:1010F000408381E090E0089580E090E00895809141
:10110000E4059091E5052091E6053091E705281763
:10111000390779F0019660E470E00E94230F909304
:10112000E5058093E4058C559A4FFC01808190E0A1
:10113000089580E090E008958091A2059091A30524
:101140002091E8053091E9058217930741F0865117
:101150009A4FFC01818190E08F739070089580E038
:1011600090E00895519A599A509A589A089558982B
:10117000599A00000000589A00000000599882E037
:101180008A95F1F700C0089558985998000000001A
:10119000589A00000000599A82E08A95F1F700C041
:1011A0000895519A28E030E090E858980000000037
:1011B000492F482311F0599A01C0599842E04A95A5
:1011C000F1F700C0589A42E04A95F1F700C09695B1
:1011D0002150304051F75198589882E08A95F1F7A4
:1011E00000C0589A42E04A95F1F700C089B1827078
:1011F0000895282F519898E080E0589832E03A9569
:10120000F1F700C0589A32E03A95F1F700C0880F24
:1012100049998160915089F7519A589800000000CF
:10122000222311F0599A01C0599892E09A95F1F74A
:1012300000C0589A32E03A95F1F700C00895CF9275
:10124000DF92EF92FF920F931F936B017C0120E0DE
:1012500030E040E05FE40E940D0C87FD11C0C70143
:10126000B60120E030E040E05FE40E94D40A0E9432
:10127000B50C8B019C01005010402040304806C046
:10128000C701B6010E94B50C8B019C01B801C901D0
:101290001F910F91FF90EF90DF90CF900895A0E005
:1012A000B0E0E5E5F9E00C944C0FEC014B01FA01DC
:1012B0008881823008F43EC1DB019C91923008F4B1
:1012C00036C1843059F4943009F034C199811196B3
:1012D0008C911197981709F027C12CC1943009F40B
:1012E00026C19230A9F4823009F024C1CE0128E051
:1012F000DC010D90CD01DA010D92AD012150C1F755
:10130000D40111968C91119799818923818311C100
:10131000823009F40CC1AA80BB80DB0112964D918A
:101320005C911397CC80DD80EE80FF8014960D9148
:101330001D912D913C911797C501841B950BDC01E4
:1013400097FF04C0AA27BB27A81BB90BA032B10581
:101350000CF067C01816190684F5280139010A2E09
:1013600004C076946794579447940A94D2F741E066
:1013700050E060E070E004C0440F551F661F771F07
:10138000AA95D2F74150504060407040402351230D
:101390006223732381E090E0A0E0B0E041155105A5
:1013A0006105710519F480E090E0DC018C019D017C
:1013B00004291529262937293FC00097E9F1AA0EEB
:1013C000BB1E260137010A2E04C0769467945794F9
:1013D00047940A94D2F741E050E060E070E004C026
:1013E000440F551F661F771FAA95D2F741505040F2
:1013F000604070404C215D216E217F2181E090E0B2
:10140000A0E0B0E0411551056105710519F480E0D7
:1014100090E0DC016C017D01C428D528E628F7287E
:101420000BC04A155B0524F400E010E0980104C0ED
:101430005A01CC24DD2476018981D40111969C9136
:101440001197891709F445C0882329F00C191D0943
:101450002E093F0908C0D701C601801B910BA20BC2
:10146000B30B8C019D0137FD04C01182B382A282AF
:101470000BC081E08183B382A282309520951095C4
:1014800001951F4F2F4F3F4F0483158326833783CA
:101490000DC0880F991FAA1FBB1F84839583A68345
:1014A000B78382819381019793838283848195811D
:1014B000A681B781AC01BD014150504060407040F1
:1014C0004F3F2FEF52072FEF62072FE3720708F30A
:1014D0000BC08183B382A2820C0D1D1D2E1D3F1DEA
:1014E000048315832683378383E080834481558179
:1014F0006681778177FF1DC0DB01CA018170907022
:10150000A070B0707695679557954795842B952B6D
:10151000A62BB72B84839583A683B783828193817F
:1015200001969383828305C0C1EED3E003C0E4013A
:1015300001C0EF01CE01CDB7DEB7E0E10C94680F3A
:10154000A0E2B0E0E6EAFAE00C945A0FDC01CB012D
:101550008D839E83AF83B88729833A834B835C83D3
:10156000CE010596BE01675E7F4F0E94300ECE0110
:101570000196BE016F5E7F4F0E94300ECE014996EC
:10158000BE016F5E7F4FAE01475F5F4F0E944F0904
:101590000E94590D462F572F682F792FCB01BA0182
:1015A000A096E2E00C94760FA0E2B0E0EAEDFAE05B
:1015B0000C945A0FDC01CB018D839E83AF83B887D7
:1015C00029833A834B835C83CE010596BE01675E17
:1015D0007F4F0E94300ECE010196BE016F5E7F4F9D
:1015E0000E94300E8A8991E089278A8BCE01499624
:1015F000BE016F5E7F4FAE01475F5F4F0E944F0994
:101600000E94590D462F572F682F792FCB01BA0111
:10161000A096E2E00C94760FA0E2B0E0E2E1FBE0FD
:101620000C944C0FDC01CB018D839E83AF83B88774
:1016300029833A834B835C83CE010596BE01675EA6
:101640007F4F0E94300ECE010196BE016F5E7F4F2C
:101650000E94300E998D923078F089898230C0F0E6
:10166000943019F4823041F4CAC0843019F49230B5
:1016700079F4C5C0923051F481E02A8D9A892917F6
:1016800009F480E08A8FCE014996BBC0823051F4C4
:1016900081E02A8D9A89291709F480E08A8BCE018E
:1016A0004196AFC04D8C5E8C6F8C78A00D891E89E1
:1016B0002F89388DE0E2F0E040E050E0BA01882464
:1016C00099245401CC24DD247601C20181709070EC
:1016D0000097D1F0C00ED11EE21EF31EDB01CA013D
:1016E000880D991DAA1DBB1D41E050E060E070E02F
:1016F000C016D106E206F30618F040E050E0BA0149
:10170000480F591F6A1F7B1F880C991CAA1CBB1C01
:1017100037FF08C081E090E0A0E0B0E0882A992A75
:10172000AA2ABB2A000F111F221F331F7694679429
:1017300057944794319749F68B8D9C8D2B893C8922
:10174000820F931F02969C878B8781E02A8D9A894E
:10175000291709F480E08A872B853C8517C0CA01C8
:1017600081709070009761F0F694E794D794C794D5
:1017700080E090E0A0E0B0E8C82AD92AEA2AFB2A53
:1017800076956795579547952F5F3F4F77FDE7CF44
:10179000C9010BC0440F551F661F771FF7FC41603E
:1017A000CC0CDD1CEE1CFF1C01974030A0E05A075A
:1017B000A0E06A07A0E47A0768F38B879C87DB01C7
:1017C000CA018F779070A070B07080349105A10528
:1017D000B10561F447FD0AC0C114D104E104F1046C
:1017E00029F0405C5F4F6F4F7F4F40784D875E8799
:1017F0006F87788B83E08987CE01099602C081EEDE
:1018000093E00E94590D462F572F682F792FCB0157
:10181000BA01A096E0E10C94680FA8E1B0E0E3E122
:10182000FCE00C945A0FDC01CB018D839E83AF83C7
:10183000B88729833A834B835C83CE010596BE012A
:101840006F5E7F4F0E94300ECE010196BE01675F32
:101850007F4F0E94300E8989823058F0898582300E
:1018600040F0CE014196BE01675F7F4F0E94990E06
:1018700001C08FEF6896E2E00C94760FCF92DF9272
:10188000EF92FF92CF93DF93CDB7DEB728970FB6D5
:10189000F894DEBF0FBECDBF6B017C0183E089836E
:1018A000D701C6018827B7FD83959927AA27BB27AB
:1018B000282F8A83C114D104E104F10419F482E0D1
:1018C000898335C08EE190E09C838B83222389F04D
:1018D00080E0C81680E0D80680E0E80680E8F806D8
:1018E00059F1F094E094D094C094C11CD11CE11C37
:1018F000F11CCD82DE82EF82F886C701B6010E941C
:10190000060D01971816190694F4082E04C0CC0C85
:10191000DD1CEE1CFF1C0A94D2F7CD82DE82EF8222
:10192000F8862EE130E0281B390B3C832B83CE0157
:1019300001960E94590D04C060E070E080E09FECC9
:10194000382F292F862F972FA32FB22FBC01CD011F
:1019500028960FB6F894DEBF0FBECDBFDF91CF91B2
:10196000FF90EF90DF90CF900895ACE0B0E0EBEB0C
:10197000FCE00C94580FDC01CB0189839A83AB8384
:10198000BC83CE010196BE016B5F7F4F0E94300E7B
:101990008D81823069F1823058F1843039F02F81A5
:1019A000388537FD25C02F31310544F08E818823DD
:1019B00019F100E010E020E030E822C08EE190E074
:1019C000821B930B09851A852B853C8504C03695AF
:1019D0002795179507958A95D2F78E81882381F0F0
:1019E00030952095109501951F4F2F4F3F4F08C000
:1019F00000E010E0980104C00FEF1FEF2FEF3FE76A
:101A0000B801C9012C96E4E00C94740FCF92DF92D8
:101A1000EF92FF920F931F938B019C01003080E0A7
:101A2000180781E0280780E0380750F40F3F1105C0
:101A30002105310509F088F480E090E0DC0116C052
:101A40000030E0E01E07E0E02E07E1E03E0750F442
:101A500080E190E0A0E0B0E009C088E090E0A0E084
:101A6000B0E004C088E190E0A0E0B0E040E250E0E7
:101A700060E070E0481B590B6A0B7B0B6801790131
:101A800004C0F694E794D794C7948A95D2F7D70107
:101A9000C60187519C4FFC018081481B5109610997
:101AA0007109CA011F910F91FF90EF90DF90CF90C5
:101AB0000895CF92DF92EF92FF920F931F93DC0174
:101AC00014964D915D916D917C9117971196EC91C3
:101AD00011978C91823020F460618FEF90E0A5C067
:101AE000843009F49DC0823009F494C04115510539
:101AF0006105710509F491C012968D919C9113971F
:101B00002FEF823892070CF059C022E83FEF281BD4
:101B1000390B2A31310564F56A017B01022E04C0BC
:101B2000F694E794D794C7940A94D2F781E090E0B2
:101B3000A0E0B0E004C0880F991FAA1FBB1F2A9520
:101B4000D2F70197A109B10984239523A623B723CE
:101B500041E050E060E070E00097A105B10519F4A4
:101B600040E050E0BA014C295D296E297F2903C06D
:101B700040E050E0BA01DB01CA018F779070A0709D
:101B8000B07080349105A105B10539F447FF09C053
:101B9000405C5F4F6F4F7F4F04C0415C5F4F6F4FA2
:101BA0007F4F81E090E0403020E0520720E0620764
:101BB00020E4720738F580E090E024C08038910579
:101BC0007CF58A019B010F77107020703070003413
:101BD00011052105310539F447FF09C0405C5F4F0D
:101BE0006F4F7F4F04C0415C5F4F6F4F7F4F77FD5A
:101BF00003C081589F4F06C07695679557954795C6
:101C000080589F4F97E076956795579547959A9599
:101C1000D1F70BC080E090E005C080E090E005C007
:101C20008FEF90E040E050E0BA01982F9795992708
:101C30009795A62FAF77E795EE27E79586953A2FEC
:101C4000392B282F2E2B842F952FA32FB22FBC0199
:101C5000CD011F910F91FF90EF90DF90CF900895ED
:101C6000DC01FB014C9111965C91119712968C91BD
:101C70001297682F6F7770E0982F991F9927991FF7
:101C800013962C911397822F880F892B90E0221F97
:101C90002227221F2183009739F54115510561053F
:101CA000710511F482E029C082E89FEF938382835B
:101CB00027E0440F551F661F771F2A95D1F783E051
:101CC000808309C0440F551F661F771F828193814F
:101CD000019793838283403080E0580780E0680753
:101CE00080E4780778F320C08F3F910579F441159F
:101CF00051056105710519F484E08083089564FF3E
:101D000003C081E0808310C010820EC08F579040C6
:101D10009383828383E0808387E0440F551F661F8F
:101D2000771F8A95D1F770644483558366837783E0
:101D30000895CF93FC01DB019081923008F44CC0F0
:101D40008C91823008F448C0943069F42181843049
:101D500039F411968C91119790E0821B910944C03F
:101D60002223D1F13FC0843021F0923041F48230FF
:101D7000B1F111968C9111978823A1F12DC0C181E9
:101D8000823001F111968C911197C817D9F4828194
:101D9000938112962D913C9113972817390794F04F
:101DA00082179307BCF04481558166817781149630
:101DB0008D919D910D90BC91A02D84179507A6073C
:101DC000B70718F4CC2341F00DC0481759076A072C
:101DD0007B0728F4CC2331F081E090E005C080E05F
:101DE00090E002C08FEF9FEFCF910895CF93DF93E4
:101DF000CDB7DEB72A970FB6F894DEBF0FBECDBFC2
:101E00000E9439070E94A1030E94E3050E94390342
:101E100078940F920F9286E392E0EDB7FEB792832B
:101E200081830E946C110F900F90F894CE0101965F
:101E30000E94EA0378940097C1F3E981FA81CE0108
:101E400003961995F2CF97FB092E07260AD077FD46
:101E500004D00CD006D000201AF4709561957F4F05
:101E60000895F6F7909581959F4F0895AA1BBB1B87
:101E700051E107C0AA1FBB1FA617B70710F0A61B8A
:101E8000B70B881F991F5A95A9F780959095BC01AB
:101E9000CD0108952F923F924F925F926F927F9261
:101EA0008F929F92AF92BF92CF92DF92EF92FF926A
:101EB0000F931F93CF93DF93CDB7DEB7CA1BDB0B16
:101EC0000FB6F894DEBF0FBECDBF19942A883988AB
:101ED00048885F846E847D848C849B84AA84B984C2
:101EE000C884DF80EE80FD800C811B81AA81B981CE
:101EF000CE0FD11D0FB6F894DEBF0FBECDBFED01E2
:101F00000895CF93DF93AC018230910510F442E045
:101F100050E0E0912C06F0912D0620E030E0A0E0AA
:101F2000B0E024C08081918184179507D0F0841798
:101F3000950771F482819381109729F013969C93F1
:101F40008E9312972CC090932D0680932C0627C059
:101F50002115310519F08217930718F49C01BD0172
:101F6000EF0192818381DF01E92FF82F3097D1F6BD
:101F700021153105F9F0C901841B950B84309105B9
:101F800080F48A819B816115710521F0FB019383A7
:101F9000828304C090932D0680932C06FE01329616
:101FA00042C0FE01E80FF91F4193519302979983B4
:101FB000888339C080912A0690912B06009741F4BE
:101FC0008091EB049091EC0490932B0680932A0669
:101FD0002091E9043091EA042115310541F42DB72F
:101FE0003EB78091ED049091EE04281B390BE091EF
:101FF0002A06F0912B06E217F30798F42E1B3F0BED
:102000002417350770F0CA0102962817390748F0DF
:102010008E0F9F1F90932B0680932A064193519316
:1020200002C0E0E0F0E0CF01DF91CF9108950F937F
:102030001F93CF93DF939C01009709F48CC0DC01C0
:10204000129713961C921E92129760912C06709113
:102050002D066115710589F48D919C911197820F60
:10206000931F20912A0630912B062817390769F50E
:10207000B0932B06A0932A066EC0FB0140E050E00F
:1020800001C0FC01EA17FB0730F482819381AF01A4
:102090000097B9F71FC0E9012297FB83EA83088103
:1020A0001981C901800F911F8E179F0759F48081F4
:1020B0009181800F911F02969983888382819381F9
:1020C0009B838A834115510529F4B0932D06A09373
:1020D0002C0641C0FA01B383A283C191D191EC0FC8
:1020E000FD1FAE17BF0781F4F901929182918C0F09
:1020F0009D1F0296DA0111969C938E9382819381A3
:1021000013969C938E931297E0E0F0E002C0FB01DF
:10211000BC01DB0112968D919C9113970097B9F742
:10212000CB0102962D913C911197820F931F209124
:102130002A0630912B062817390769F4309729F4BD
:1021400010922D0610922C0602C0138212827093F8
:102150002B0660932A06DF91CF911F910F9108956E
:10216000FC0188279927E89421912032E9F329304E
:1021700010F02E30C8F32B3241F02D3239F4689430
:1021800004C00E940A11820F911D219120532A3010
:10219000C0F31EF4909581959F4F08954BEF54E046
:1021A0000E94E3100895FB01DC018D9101908019DC
:1021B0000110D9F3990B0895FB01DC0101900D92F8
:1021C0000020E1F70895FA01A191B081009719F478
:1021D0001097E1F0CD01DC01CD010D90002011F44C
:1021E000C00113C0FB012191222319F02015D9F75A
:1021F000F3CFFB012191201519F41E92119606C010
:102200002223C1F70D900020A1F7D001FA01A1937C
:10221000B08308957AE0979F902D879F802D910D30
:1022200011240895CF92DF92EF92FF920F931F93A4
:10223000CF93DF938C016A01FA01838180FF1AC07A
:1022400016161706BCF47B01E8010EC0C6010E94F9
:10225000FF13FFEF8F3F9F0769F089930894E10810
:10226000F1088A30910521F021E0E216F10471F7BE
:10227000188202C000E010E0C801DF91CF911F91E9
:102280000F91FF90EF90DF90CF9008950F931F93E1
:10229000CF93DF938C01E0912E06F0912F0683817E
:1022A00080FF12C0E80180912E0690912F060E94B7
:1022B000FF132FEF8F3F920739F089938A309105F2
:1022C00091F72197188202C000E010E0C801DF9169
:1022D000CF911F910F910895CF93DF93CDB7DEB7C4
:1022E000FE01369661917191809130069091310690
:1022F000AF010E94E211DF91CF9108956091300605
:10230000709131060E943F1408950F931F93CF934D
:10231000DF938C01E0913006F0913106838181FFDB
:102320001AC0C0E0D0E005C01995009711F0CFEFBA
:10233000DFEFF80181918F016091300670913106D5
:10234000DB011896ED91FC911997882369F78AE0D3
:102350001995009711F0CFEFDFEFCE01DF91CF910C
:102360001F910F9108950F931F93CF93DF93CDB7D4
:10237000DEB72E970FB6F894DEBF0FBECDBF0E8925
:102380001F8986E08C831A8309838FEF9FE79E83E2
:102390008D83AE01465E5F4FCE010196688D798DCB
:1023A0000E94E211EF81F885E00FF11F10822E9656
:1023B0000FB6F894DEBF0FBECDBFDF91CF911F9156
:1023C0000F9108952F923F924F925F926F927F925A
:1023D0008F929F92AF92BF92CF92DF92EF92FF9235
:1023E0000F931F93CF93DF93CDB7DEB72D970FB623
:1023F000F894DEBF0FBECDBF3C017D876C875A01CC
:10240000FC0117821682838181FFC8C12E010894C6
:10241000411C511CF3019381EC85FD8593FD859151
:1024200093FF8191FD87EC87882309F4B3C185323E
:1024300041F493FD859193FF8191FD87EC8785326F
:1024400029F490E0B3010E943F14E4CFFF24EE246E
:1024500010E01032B0F48B3269F08C3228F4803204
:1024600051F0833271F40BC08D3239F0803349F46E
:1024700011602CC01260146029C0186027C0106160
:1024800025C017FD2EC0282F20532A3098F416FFA0
:1024900008C08F2D880FF82EFF0CFF0CF80EF20EDF
:1024A00015C08E2D880FE82EEE0CEE0CE80EE20E15
:1024B00010620CC08E3221F416FD6CC1106406C08F
:1024C0008C3611F4106802C0883659F4EC85FD850D
:1024D00093FD859193FF8191FD87EC87882309F017
:1024E000B8CF982F9554933018F09052933038F419
:1024F00024E030E0A20EB31E3FE339830FC08336E1
:1025000031F0833781F0833509F05AC022C0F501DC
:102510008081898322E030E0A20EB31E21E0C22E2A
:10252000D12C420114C092E0292E312C2A0C3B1CE4
:10253000F5018080918016FF03C06F2D70E002C00E
:102540006FEF7FEFC4010E94F4136C0151011F77FC
:1025500015C082E0282E312C2A0C3B1CF50180800E
:10256000918016FF03C06F2D70E002C06FEF7FEF08
:10257000C4010E94E9136C011068510113FD1CC0D5
:1025800006C080E290E0B3010E943F14EA948E2DD1
:1025900090E0C816D906A8F30FC0F40117FD859185
:1025A00017FF81914F0190E0B3010E943F14E110A9
:1025B000EA940894C108D108C114D10471F7E7C0A6
:1025C000843611F0893651F5F50117FF07C0808177
:1025D0009181A281B38124E030E008C080819181A3
:1025E000AA2797FDA095BA2F22E030E0A20EB31ED5
:1025F000012F0F76B7FF08C0B095A09590958195F3
:102600009F4FAF4FBF4F0068BC01CD01A2012AE030
:1026100030E00E946B14D82ED4183FC0853721F4C7
:102620001F7E2AE030E020C0197F8F36A9F0803766
:1026300020F4883509F0AEC00BC0803721F0883710
:1026400009F0A8C001C0106114FF09C0146007C0E0
:1026500014FF08C0166006C028E030E005C020E185
:1026600030E002C020E132E0F50117FF07C06081D1
:1026700071818281938144E050E006C06081718164
:1026800080E090E042E050E0A40EB51EA2010E945E
:102690006B14D82ED418012F0F7706FF09C00E7FB8
:1026A000DF1430F404FF06C002FD04C00F7E02C038
:1026B0001D2D01C01F2D802F90E004FF0CC0FE01D6
:1026C000ED0DF11D2081203311F4097E09C002FFB8
:1026D00006C01E5F05C086789070009709F01F5FE6
:1026E000802E992403FD12C000FF0DC0FD2C1E1585
:1026F00050F4FE0CF11A1E2D06C080E290E0B301EA
:102700000E943F141F5F1E15C0F304C01E1510F475
:10271000E11A01C0EE2484FE0FC080E390E0B30113
:102720000E943F1482FE1FC081FE03C088E590E036
:1027300010C088E790E00DC0C401867890700097C3
:1027400091F081FC02C080E201C08BE207FD8DE2C6
:1027500090E0B3010E943F1406C080E390E0B30113
:102760000E943F14FA94DF14C0F3DA94F201ED0DE5
:10277000F11D808190E0B3010E943F14DD20A9F794
:1027800006C080E290E0B3010E943F14EA94EE207C
:10279000C1F740CEF3018681978102C08FEF9FEF92
:1027A0002D960FB6F894DEBF0FBECDBFDF91CF914F
:1027B0001F910F91FF90EF90DF90CF90BF90AF905F
:1027C0009F908F907F906F905F904F903F902F9051
:1027D0000895FC010590615070400110D8F7809574
:1027E00090958E0F9F1F0895FC01615070400190DD
:1027F0000110D8F7809590958E0F9F1F0895CF9365
:10280000DF93EC012B8120FF35C026FF09C02F7B11
:102810002B838E819F8101969F838E838A8128C01E
:1028200022FF0FC0E881F9818081992787FD90956B
:10283000009719F420622B831DC03196F983E88339
:1028400011C0EA85FB85CE01199597FF0BC02B813E
:102850003FEF8F3F930711F480E101C080E2822BAC
:102860008B8308C02E813F812F5F3F4F3F832E8394
:1028700090E002C08FEF9FEFDF91CF9108950F930B
:102880001F93CF93DF938C01EB018B8181FF1BC0E2
:1028900082FF0DC02E813F818C819D8128173907D1
:1028A00064F4E881F9810193F983E88306C0E8853F
:1028B000F985802F1995009731F48E819F810196BB
:1028C0009F838E8302C00FEF1FEFC801DF91CF916E
:1028D0001F910F910895FA01AA27283051F1203154
:1028E00081F1E8946F936E7F6E5F7F4F8F4F9F4FA4
:1028F000AF4FB1E03ED0B4E03CD0670F781F891FE6
:102900009A1FA11D680F791F8A1F911DA11D6A0FB3
:10291000711D811D911DA11D20D009F468943F9166
:102920002AE0269F11243019305D3193DEF6CF0165
:102930000895462F4770405D4193B3E00FD0C9F72B
:10294000F6CF462F4F70405D4A3318F0495D31FD98
:102950004052419302D0A9F7EACFB4E0A6959795EB
:10296000879577956795BA95C9F7009761057105C1
:1029700008959B01AC010A2E06945795479537950B
:102980002795BA95C9F7620F731F841F951FA01D65
:062990000895F894FFCF4A
:1029960025640025642069732061207072696D6565
:1029A600206E756D626572202121210A00636F75A4
:1029B6006E743D25640A003E2020003E3E20002D18
:1029C6002D3E256320002420002564004375727285
:1029D600656E742074656D706572617475726520BC
:1029E6006973202564206465677265652E0A00692F
:1029F6006E7465727275707420666C6167007461BE
:102A0600736B5F746337372829203A2063757272B7
:102A1600656E745F74656D7065726174757265203C
:102A26002D3E202564206465677265652E0A007454
:102A360061736B5F746337372829203A20756E659A
:102A46007870656374656420737461746520696E5B
:102A5600207461736B5F746337372E2E2E0074619A
:102A6600736B5F74636E37355F6932632829203A6A
:102A760020534C412B572077726974652066616933
:102A86006C2E2E2E007461736B5F74636E37355F28
:102A96006932632829203A20706F696E7465722046
:102AA6007772697465206661696C2E2E2E007461DA
:102AB600736B5F74636E37355F6932632829203A1A
:102AC6002063757272656E745F74656D7065726190
:102AD60074757265202D3E202564206465677265D5
:102AE600652E0A006C6F676F75742C20676F6F64B4
:102AF60020627965202121210020090A0D00242069
:102B0600007072696D650074696D6572002121211E
:102B16002D32323200002121212D333333007463EC
:102B26003130343700746337370074636E37355F7E
:102B360069326300556E6B6E6F776E20636F6D6DD5
:102B4600616E642E2E2E002D2D3E256428256429C7
:102B5600200000000000010000000000000B07003C
:102B6600000000000200000000180700000000013D
:102B76000000000000000000000001020203030341
:102B860003040404040404040405050505050505F9
:102B960005050505050505050506060606060606D8
:102BA60006060606060606060606060606060606BF
:102BB60006060606060606060607070707070707A8
:102BC600070707070707070707070707070707078F
:102BD600070707070707070707070707070707077F
:102BE600070707070707070707070707070707076F
:102BF6000707070707070707070808080808080858
:102C0600080808080808080808080808080808083E
:102C1600080808080808080808080808080808082E
:102C2600080808080808080808080808080808081E
:102C3600080808080808080808080808080808080E
:102C460008080808080808080808080808080808FE
:102C560008080808080808080808080808080808EE
:102C660008080808080808080808080808080808DE
:102C760008080808080808080800003406200000AC
:00000001FF
