:100000000C9472000C9494000C9494000C94940042
:100010000C9494000C9494000C9494000C94940010
:100020000C9494000C9494000C9494000C94940000
:100030000C9494000C9494000C9494000C949400F0
:100040000C9494000C9494000C9494000C949400E0
:100050000C9494000C9494000C9494000C949400D0
:100060000C9494000C940A030C9494000C94DB02FE
:100070000C9494000C9494000C9494000C949400B0
:100080000C9494000C9494000C9494000C949400A0
:100090000C9494000C9494000C9494000C94940090
:1000A0000C9494000C9494000C9494000C94940080
:1000B0000C9494000C9494000C9494000C94940070
:1000C0000C9494000C9494000C9494000C94940060
:1000D0000C9494000C9494000C9494000C94940050
:1000E0000C94940011241FBECFEFD1E2DEBFCDBF30
:1000F00000E00CBF12E0A0E0B2E0E2E1F4E100E0D9
:100100000BBF02C007900D92A23AB107D9F71BBEF0
:1001100013E0A2EAB2E001C01D92AC33B107E1F7EF
:100120000E948F040C94070A0C940000CF93DF9375
:10013000FC0162E070E00E94F404EB0122E030E098
:1001400008C0CF01B9010E94F404009741F02F5F6D
:100150003F4FC217D307ACF781E090E002C080E0C8
:1001600090E0DF91CF910895CF92DF92EF92FF92CE
:100170000F931F93CF93DF93009721F00E944A06BD
:100180007C0104C090EDE92E97E0F92EC2E0D0E0AA
:1001900000E010E080E0C82E82E0D82E16C0CE012C
:1001A0000E949600009781F00F5F1F4F00D00F92C2
:1001B000EDB7FEB7D282C182D483C3830E94D90631
:1001C0000F900F900F900F902196EC16FD063CF7C4
:1001D00000D00F928AE192E0EDB7FEB7928381835F
:1001E000148303830E94D9060F900F900F900F90F5
:1001F000DF91CF911F910F91FF90EF90DF90CF9003
:100200000895EF92FF921F93CF93DF93CDB7DEB7A0
:1002100028970FB6F894DEBF0FBECDBF009719F038
:10022000FC01108101C011E624E2E22E22E0F22E50
:100230000F920F92EDB7FEB7F282E1820E94D906CB
:100240000F900F904091360350913703CE010196E5
:1002500068E070E00E94A5060097A1F00E94C70127
:100260002981FC0120831182183619F0143739F4E2
:1002700003C00E94CF01DCCF0E94E401D9CF0E94CD
:10028000FB01D6CF0E9435020E94620228960FB66B
:10029000F894DEBF0FBECDBFDF91CF911F91FF90CD
:1002A000EF9008950F931F93CF93DF93CDB7DEB7F1
:1002B00062970FB6F894DEBF0FBECDBF08E212E022
:1002C0000F920F92EDB7FEB7128301830E94D906F9
:1002D0000F900F904091360350913703CE01019655
:1002E00068E070E00E94A506009761F0CE010196DB
:1002F0000E944A06BC01009729F0CE0109960E948F
:10030000D303DECF0E943C040E947E0462960FB6A7
:10031000F894DEBF0FBECDBFDF91CF911F910F913B
:1003200008958FEF80930B0180930A010895109236
:100330000B011092A20208958FEF80930B0180931E
:10034000A202089521E030E002C0220F331F8A95F7
:10035000E2F720958091A20228232093A202209305
:100360000B01089521E030E002C0220F331F8A956F
:10037000E2F78091A202822B8093A20280930B016C
:10038000089580958093A20280930B01089584E0E4
:1003900090E00E941B0508950E94B1050895FC019C
:1003A0008091A3029091A402009739F4F093A402E3
:1003B000E093A30213821282089593838283F093C1
:1003C000A402E093A3020895E091A302F091A40295
:1003D000309731F49093A4028093A30208C0F901EE
:1003E0002281338121153105D1F793838283FC016A
:1003F000138212820895CF93DF93FC01A091A30290
:10040000B091A402109749F0608171813A2F2B2F8F
:10041000C0E0D0E0582F4F2F1BC09093A4028093D0
:10042000A302138212821EC0209721F432832383F9
:100430009A0106C08A819B8193838283FB83EA832E
:1004400012968D919C911397009741F0ED01DC017C
:100450008D919C9111978617970734F33093A302DF
:100460002093A402DF91CF9108950F931F93CF9310
:10047000DF938AE090E00E94EB06C091A302D09146
:10048000A4020CE212E013C000D00F92EDB7FEB749
:100490001283018388819981948383830E94D90682
:1004A0000A80DB81C02D0F900F900F900F90209746
:1004B00059F78AE090E00E94EB06DF91CF911F91FF
:1004C0000F91089509C0FC01228133813093A40269
:1004D0002093A3020E94B1058091A3029091A402EF
:1004E000009789F70895F8940E94720378948823FE
:1004F000D1F3843011F090E008958FEF9FEF0895CD
:10050000CF93C82F8A3019F48DE00E948002F894AE
:100510008091A902882359F4C093C60081E080939A
:10052000A9020AC0789486EF8A95F1F7F8948C2F87
:100530000E948F030097B1F3789481E090E0CF910F
:10054000089585E792E0909337038093360383E81C
:1005500092E090933903809338030E943F031092F6
:10056000A9021092C50083E08093C400E1ECF0E0A2
:1005700080818860808380818064808380818061C5
:1005800080838081806880830895CF93C82F8A30CC
:1005900019F48DE00E94C5028091A902882331F4EC
:1005A000C093C60081E08093A90203C08C2F0E94F3
:1005B0008F03CF9108951F920F920FB60F920BB633
:1005C0000F9211242F933F934F935F936F937F93D9
:1005D0008F939F93AF93BF93EF93FF930E94B103C9
:1005E000882319F41092A90202C08093C600FF91DB
:1005F000EF91BF91AF919F918F917F916F915F919B
:100600004F913F912F910F900BBE0F900FBE0F9007
:100610001F9018951F920F920FB60F920BB60F9264
:1006200011242F933F934F935F936F937F938F93F7
:100630009F93AF93BF93CF93EF93FF93C091C60067
:10064000C43031F0CD3009F4CAE08C2F0E94C502CD
:100650008C2F0E945003FF91EF91CF91BF91AF91EA
:100660009F918F917F916F915F914F913F912F91CA
:100670000F900BBE0F900FBE0F901F901895109209
:10068000EF021092EE021092ED021092EC02109224
:10069000F1021092F0021092AB021092AA02089599
:1006A000482F2091F0023091F1022F5F3F4FC90196
:1006B00060E470E00E94F4049C018091AA02909191
:1006C000AB022817390759F03093F1022093F0025A
:1006D0002E503D4FF901408381E090E0089580E085
:1006E00090E008958091AA029091AB022091F002CF
:1006F0003091F1022817390779F0019660E470E033
:100700000E94F4049093AB028093AA028E509D4FF6
:10071000FC01808190E0089580E090E00895482FEA
:100720002091EE023091EF022F5F3F4FC90160E44C
:1007300070E00E94F4049C018091EC029091ED0223
:100740002817390759F03093EF022093EE02245511
:100750003D4FF901408381E090E0089580E090E012
:1007600008958091EC029091ED022091EE0230917B
:10077000EF022817390779F0019660E470E00E94D3
:10078000F4049093ED028093EC0284559D4FFC019C
:10079000808190E0089580E090E008958EE090E000
:1007A0000E941B050895EF92FF920F931F93CF9322
:1007B000DF93F82EE92E8B010E94CE03DC01FC01B1
:1007C0003296CF2DDE2D8AE0099001928150E1F71B
:1007D00011961C930E93C091A502D091A60220976A
:1007E00029F4B093A602A093A50230C020E030E027
:1007F00040E050E001C0EF0188819981480F591F06
:100800004017510734F4EC85FD859E01309799F728
:1008100001C0FE012115310579F480819181801B91
:10082000910B918380831D96FC93EE931C97B0935C
:10083000A602A093A50219C0309769F4041B150BFA
:1008400011961C930E93E901BD87AC871D961C92EF
:100850001E921C970AC011961C921E92E901BD8738
:10086000AC871D96FC93EE931C97DF91CF911F915F
:100870000F91FF90EF900895EF92FF920F931F93C7
:10088000CF93DF938AE090E00E94EB06C091A5022F
:10089000D091A60200E010E081E9E82E82E0F82E77
:1008A00020C088819981080F191F00D000D0EDB7B2
:1008B000FEB73196ADB7BEB71296FC92EE92119785
:1008C00093838283158304830E94D9060C84DD857B
:1008D000C02D8DB79EB706960FB6F8949EBF0FBE7B
:1008E0008DBF2097F1F68AE090E00E94EB06DF9141
:1008F000CF911F910F91FF90EF90089509C0FC01D7
:10090000248535853093A6022093A5020E94B10567
:100910008091A5029091A602009789F70895CF9340
:10092000DF93CDB7DEB7C058D0400FB6F894DEBF26
:100930000FBECDBF0E94A1020E949101789483E373
:10094000C82E82E0D82E0F920F92EDB7FEB7D2825A
:10095000C1820E94D9060F900F90409136035091AA
:100960003703CE01019660E870E00E94A50600976B
:10097000B1F1CE01019666E372E00E9468068C0137
:10098000009709F380E090E066E372E00E94680659
:100990007C01C8016CE372E00E946D06009721F4AF
:1009A000C7010E94B400CFCFC80162E472E00E9488
:1009B0006D06009721F4C7010E940101C4CFC80150
:1009C00067E472E00E946D06009721F4C7010E945F
:1009D0005201B9CF8DE492E00E94F206B4CF80E6D6
:1009E00092E00E94F206FFCF97FB092E07260AD05D
:1009F00077FD04D00CD006D000201AF470956195D4
:100A00007F4F0895F6F7909581959F4F0895AA1B03
:100A1000BB1B51E107C0AA1FBB1FA617B70710F0E9
:100A2000A61BB70B881F991F5A95A9F7809590951B
:100A3000BC01CD010895CF93DF93AC0182309105C5
:100A400010F442E050E0E0913403F091350320E0EF
:100A500030E0A0E0B0E024C0808191818417950748
:100A6000D0F08417950771F482819381109729F053
:100A700013969C938E9312972CC09093350380937A
:100A8000340327C02115310519F08217930718F494
:100A90009C01BD01EF0192818381DF01E92FF82FD5
:100AA0003097D1F621153105F9F0C901841B950B5A
:100AB0008430910580F48A819B816115710521F054
:100AC000FB019383828304C09093350380933403A6
:100AD000FE01329642C0FE01E80FF91F4193519387
:100AE00002979983888339C08091320390913303B0
:100AF000009741F480919E0290919F02909333035E
:100B00008093320320919C0230919D022115310582
:100B100041F42DB73EB78091A0029091A102281B0D
:100B2000390BE0913203F0913303E217F30798F4A5
:100B30002E1B3F0B2417350770F0CA0102962817A9
:100B4000390748F08E0F9F1F909333038093320331
:100B50004193519302C0E0E0F0E0CF01DF91CF91EB
:100B600008950F931F93CF93DF939C01009709F48F
:100B70008CC0DC01129713961C921E921297609102
:100B80003403709135036115710589F48D919C9141
:100B90001197820F931F209132033091330328174E
:100BA000390769F5B0933303A09332036EC0FB019C
:100BB00040E050E001C0FC01EA17FB0730F48281FD
:100BC0009381AF010097B9F71FC0E9012297FB831A
:100BD000EA8308811981C901800F911F8E179F0731
:100BE00059F480819181800F911F029699838883A7
:100BF000828193819B838A834115510529F4B093A7
:100C00003503A093340341C0FA01B383A283C19199
:100C1000D191EC0FFD1FAE17BF0781F4F90192913E
:100C200082918C0F9D1F0296DA0111969C938E93F0
:100C30008281938113969C938E931297E0E0F0E06B
:100C400002C0FB01BC01DB0112968D919C911397B0
:100C50000097B9F7CB0102962D913C911197820F25
:100C6000931F20913203309133032817390769F419
:100C7000309729F4109235031092340302C0138286
:100C800012827093330360933203DF91CF911F91EF
:100C90000F910895FC0188279927E894219120322B
:100CA000E9F3293010F02E30C8F32B3241F02D3209
:100CB00039F4689404C00E949D06820F911D219111
:100CC00020532A30C0F31EF4909581959F4F0895CC
:100CD00047EA52E00E9476060895FB01DC018D91FF
:100CE000019080190110D9F3990B0895FA01A1918F
:100CF000B081009719F41097E1F0CD01DC01CD012E
:100D00000D90002011F4C00113C0FB01219122239A
:100D100019F02015D9F7F3CFFB012191201519F413
:100D20001E92119606C02223C1F70D900020A1F754
:100D3000D001FA01A193B08308957AE0979F902D96
:100D4000879F802D910D11240895CF92DF92EF920D
:100D5000FF920F931F93CF93DF938C016A01FA01E7
:100D6000838180FF1AC016161706BCF47B01E801C8
:100D70000EC0C6010E943D09FFEF8F3F9F0769F03B
:100D800089930894E108F1088A30910521F021E067
:100D9000E216F10471F7188202C000E010E0C80109
:100DA000DF91CF911F910F91FF90EF90DF90CF9047
:100DB0000895CF93DF93CDB7DEB7FE0136966191EC
:100DC00071918091380390913903AF010E942007FF
:100DD000DF91CF91089560913803709139030E949B
:100DE0007D0908950F931F93CF93DF938C01E091BA
:100DF0003803F0913903838181FF1AC0C0E0D0E04D
:100E000005C01995009711F0CFEFDFEFF801819140
:100E10008F016091380370913903DB011896ED91D1
:100E2000FC911997882369F78AE01995009711F0CA
:100E3000CFEFDFEFCE01DF91CF911F910F9108959A
:100E40002F923F924F925F926F927F928F929F92DA
:100E5000AF92BF92CF92DF92EF92FF920F931F93C8
:100E6000CF93DF93CDB7DEB72D970FB6F894DEBFE3
:100E70000FBECDBF3C017D876C875A01FC011782F4
:100E80001682838181FFC8C12E010894411C511C28
:100E9000F3019381EC85FD8593FD859193FF81910D
:100EA000FD87EC87882309F4B3C1853241F493FDB3
:100EB000859193FF8191FD87EC87853229F490E03D
:100EC000B3010E947D09E4CFFF24EE2410E010322C
:100ED000B0F48B3269F08C3228F4803251F08332D6
:100EE00071F40BC08D3239F0803349F411602CC09D
:100EF0001260146029C0186027C0106125C017FD5A
:100F00002EC0282F20532A3098F416FF08C08F2DAA
:100F1000880FF82EFF0CFF0CF80EF20E15C08E2D68
:100F2000880FE82EEE0CEE0CE80EE20E10620CC0FC
:100F30008E3221F416FD6CC1106406C08C3611F49B
:100F4000106802C0883659F4EC85FD8593FD8591C3
:100F500093FF8191FD87EC87882309F0B8CF982F04
:100F60009554933018F09052933038F424E030E0E8
:100F7000A20EB31E3FE339830FC0833631F08337AF
:100F800081F0833509F05AC022C0F5018081898340
:100F900022E030E0A20EB31E21E0C22ED12C42018D
:100FA00014C092E0292E312C2A0C3B1CF5018080C4
:100FB000918016FF03C06F2D70E002C06FEF7FEFCE
:100FC000C4010E9432096C0151011F7715C082E0F3
:100FD000282E312C2A0C3B1CF5018080918016FFB5
:100FE00003C06F2D70E002C06FEF7FEFC4010E945D
:100FF00027096C011068510113FD1CC006C080E276
:1010000090E0B3010E947D09EA948E2D90E0C8160D
:10101000D906A8F30FC0F40117FD859117FF819140
:101020004F0190E0B3010E947D09E110EA94089419
:10103000C108D108C114D10471F7E7C0843611F09A
:10104000893651F5F50117FF07C080819181A28192
:10105000B38124E030E008C080819181AA2797FD08
:10106000A095BA2F22E030E0A20EB31E012F0F761A
:10107000B7FF08C0B095A095909581959F4FAF4F51
:10108000BF4F0068BC01CD01A2012AE030E00E9400
:10109000A909D82ED4183FC0853721F41F7E2AE035
:1010A00030E020C0197F8F36A9F0803720F48835D2
:1010B00009F0AEC00BC0803721F0883709F0A8C016
:1010C00001C0106114FF09C0146007C014FF08C0FC
:1010D000166006C028E030E005C020E130E002C024
:1010E00020E132E0F50117FF07C060817181828144
:1010F000938144E050E006C06081718180E090E01F
:1011000042E050E0A40EB51EA2010E94A909D82E0B
:10111000D418012F0F7706FF09C00E7FDF1430F4BB
:1011200004FF06C002FD04C00F7E02C01D2D01C0D9
:101130001F2D802F90E004FF0CC0FE01ED0DF11D6E
:101140002081203311F4097E09C002FF06C01E5F12
:1011500005C086789070009709F01F5F802E992453
:1011600003FD12C000FF0DC0FD2C1E1550F4FE0C37
:10117000F11A1E2D06C080E290E0B3010E947D09A5
:101180001F5F1E15C0F304C01E1510F4E11A01C044
:10119000EE2484FE0FC080E390E0B3010E947D093D
:1011A00082FE1FC081FE03C088E590E010C088E782
:1011B00090E00DC0C40186789070009791F081FC9A
:1011C00002C080E201C08BE207FD8DE290E0B30136
:1011D0000E947D0906C080E390E0B3010E947D0972
:1011E000FA94DF14C0F3DA94F201ED0DF11D808161
:1011F00090E0B3010E947D09DD20A9F706C080E2DE
:1012000090E0B3010E947D09EA94EE20C1F740CE40
:10121000F3018681978102C08FEF9FEF2D960FB665
:10122000F894DEBF0FBECDBFDF91CF911F910F911C
:10123000FF90EF90DF90CF90BF90AF909F908F90F6
:101240007F906F905F904F903F902F900895FC019A
:101250000590615070400110D8F7809590958E0FE1
:101260009F1F0895FC016150704001900110D8F754
:10127000809590958E0F9F1F0895CF93DF93EC017B
:101280002B8120FF35C026FF09C02F7B2B838E8149
:101290009F8101969F838E838A8128C022FF0FC081
:1012A000E881F9818081992787FD9095009719F44D
:1012B00020622B831DC03196F983E88311C0EA8533
:1012C000FB85CE01199597FF0BC02B813FEF8F3F18
:1012D000930711F480E101C080E2822B8B8308C068
:1012E0002E813F812F5F3F4F3F832E8390E002C0CE
:1012F0008FEF9FEFDF91CF9108950F931F93CF93BF
:10130000DF938C01EB018B8181FF1BC082FF0DC03D
:101310002E813F818C819D812817390764F4E881F3
:10132000F9810193F983E88306C0E885F985802F68
:101330001995009731F48E819F8101969F838E834A
:1013400002C00FEF1FEFC801DF91CF911F910F91E6
:101350000895FA01AA27283051F1203181F1E8944B
:101360006F936E7F6E5F7F4F8F4F9F4FAF4FB1E098
:101370003ED0B4E03CD0670F781F891F9A1FA11D93
:10138000680F791F8A1F911DA11D6A0F711D811D94
:10139000911DA11D20D009F468943F912AE0269F59
:1013A00011243019305D3193DEF6CF010895462FB8
:1013B0004770405D4193B3E00FD0C9F7F6CF462F99
:1013C0004F70405D4A3318F0495D31FD4052419302
:1013D00002D0A9F7EACFB4E0A695979587957795BF
:1013E0006795BA95C9F700976105710508959B0146
:1013F000AC010A2E06945795479537952795BA95CF
:10140000C9F7620F731F841F951FA01D0895F894DC
:02141000FFCF0C
:1014120025642069732061207072696D65206E7584
:101422006D626572202121210A00636F756E743D21
:1014320025640A003E2020003E3E20002D2D3E2540
:101442006320002420000A0D092020007072696DBB
:1014520065006C6973740074696D657200556E6B1A
:101462006E6F776E20636F6D6D616E642E2E2E002F
:101472006C6F676F75742C20676F6F64206279657B
:101482002021212100000000010000000000007363
:1014920002000000000002000000008002000000C4
:1014A200002D2D3E256428256429200000003C03E0
:0214B200200018
:00000001FF
