:100000000C9472000C9494000C9494000C94940042
:100010000C9494000C9494000C9494000C94940010
:100020000C9494000C9494000C9494000C94940000
:100030000C9494000C9494000C9494000C9475040B
:100040000C9494000C9494000C9494000C949400E0
:100050000C9494000C9494000C9494000C949400D0
:100060000C9494000C9405060C9494000C94D60502
:100070000C9494000C9427070C9494000C94940016
:100080000C9494000C9494000C9494000C949400A0
:100090000C9494000C9494000C9494000C94940090
:1000A0000C9494000C9494000C9494000C94940080
:1000B0000C9494000C9494000C9494000C94940070
:1000C0000C9494000C9494000C9494000C94940060
:1000D0000C9494000C9494000C9494000C94940050
:1000E0000C94940011241FBECFEFD1E2DEBFCDBF30
:1000F00000E00CBF13E0A0E0B2E0EEE6F1E200E0C9
:100100000BBF02C007900D92A83EB107D9F71BBEE6
:1001100015E0A8EEB3E001C01D92AA32B107E1F7E5
:100120000E94E40A0C94B5100C940000CF93DF9366
:10013000FC0162E070E00E940F0BEB0122E030E076
:1001400008C0CF01B9010E940F0B009741F02F5F4B
:100150003F4FC217D307ACF781E090E002C080E0C8
:1001600090E0DF91CF910895CF92DF92EF92FF92CE
:100170000F931F93CF93DF93009721F00E949C0C65
:100180007C0104C090EDE92E97E0F92EC2E0D0E0AA
:1001900000E010E080E0C82E82E0D82E16C0CE012C
:1001A0000E949600009781F00F5F1F4F00D00F92C2
:1001B000EDB7FEB7D282C182D483C3830E94580DAB
:1001C0000F900F900F900F902196EC16FD063CF7C4
:1001D00000D00F928AE192E0EDB7FEB7928381835F
:1001E000148303830E94580D0F900F900F900F906F
:1001F000DF91CF911F910F91FF90EF90DF90CF9003
:100200000895EF92FF921F93CF93DF93CDB7DEB7A0
:1002100028970FB6F894DEBF0FBECDBF009719F038
:10022000FC01108101C011E624E2E22E22E0F22E50
:100230000F920F92EDB7FEB7F282E1820E94580D45
:100240000F900F904091240550912505CE01019605
:1002500068E070E00E94FE0C0097A1F00E94170277
:100260002981FC0120831182183619F0143739F4E2
:1002700003C00E941F02DCCF0E943402D9CF0E942B
:100280004B02D6CF0E9485020E94B20228960FB67A
:10029000F894DEBF0FBECDBFDF91CF911F91FF90CD
:1002A000EF9008950F931F93CF93DF93CDB7DEB7F1
:1002B00062970FB6F894DEBF0FBECDBF08E212E022
:1002C0000F920F92EDB7FEB7128301830E94580D73
:1002D0000F900F904091240550912505CE01019675
:1002E00068E070E00E94FE0C009761F0CE0101967C
:1002F0000E949C0CBC01009729F0CE0109960E9437
:10030000AF04DECF0E9418050E945A0562960FB610
:10031000F894DEBF0FBECDBFDF91CF911F910F913B
:100320000895CF92DF92EF92FF920F931F93CF9396
:10033000DF93009741F0FC012081222321F00E94ED
:100340009C0C8C0102C000ED17E0EE24FF24C2E0FB
:10035000D0E030E0C32E32E0D32E17C0CE010E9491
:100360009600009789F00894E11CF11C00D00F92D0
:10037000EDB7FEB7D282C182D483C3830E94580DE9
:100380000F900F900F900F9021960C171D0734F7C8
:1003900000D00F928AE192E0EDB7FEB7928381839D
:1003A000F482E3820E94580D0F900F900F900F90EF
:1003B000DF91CF911F910F91FF90EF90DF90CF9041
:1003C00008958FEF80930B0180930A010895109296
:1003D0000B011092E80308958FEF80930B01809337
:1003E000E803089521E030E002C0220F331F8A9510
:1003F000E2F720958091E80328232093E8032093D7
:100400000B01089521E030E002C0220F331F8A95CE
:10041000E2F78091E803822B8093E80380930B013D
:10042000089580958093E80380930B01089584E0FC
:1004300090E00E946D0B08950E94030C0895FC014A
:100440008091E9039091EA03009739F4F093EA036D
:10045000E093E90313821282089593838283F093D9
:10046000EA03E093E9030895E091E903F091EA03D8
:10047000309731F49093EA038093E90308C0F901BF
:100480002281338121153105D1F793838283FC01C9
:10049000138212820895CF93DF93FC01A091E903A8
:1004A000B091EA03109749F0608171813A2F2B2FA8
:1004B000C0E0D0E0582F4F2F1BC09093EA038093E9
:1004C000E903138212821EC0209721F43283238312
:1004D0009A0106C08A819B8193838283FB83EA838E
:1004E00012968D919C911397009741F0ED01DC01DC
:1004F0008D919C9111978617970734F33093E903F8
:100500002093EA03DF91CF9108950F931F93CF9328
:10051000DF938AE090E00E946A0DC091E903D091D8
:10052000EA030CE212E013C000D00F92EDB7FEB761
:100530001283018388819981948383830E94580D5B
:100540000A80DB81C02D0F900F900F900F902097A5
:1005500059F78AE090E00E946A0DDF91CF911F91D8
:100560000F91089509C0FC01228133813093EA0381
:100570002093E9030E94030C8091E9039091EA0320
:10058000009789F708951092F4031092F3031092E4
:100590009604109295040895CF93DF93482FE92F86
:1005A0008091F3039091F403C0919504D091960447
:1005B000019620E130E0B9010E940F0B8C179D07D6
:1005C00031F180919504909196040196B9010E94B1
:1005D0000F0B9093F4038093F3038091F3039091B6
:1005E000F403DC01AA0FBB1F63E0880F991F6A9513
:1005F000E1F7A80FB91FAB50BC4FC42FDE2F8AE024
:1006000009900D928150E1F781E090E002C080E016
:1006100090E0DF91CF9108959C014091F3035091B8
:10062000F40380919504909196044817590731F18D
:100630008091950490919604019660E170E00E948B
:100640000F0B90939604809395048091950490915C
:100650009604FC01EE0FFF1FA3E0880F991FAA95D7
:10066000E1F7E80FF91FD901EB50FC4F8AE0019048
:100670000D928150E1F781E090E0089580E090E0F4
:100680000895FC012081222319F50E94170781E0BB
:1006900090E09093EC038093EB038091EB039091B7
:1006A000EC030097D1F700D00F9286E392E0EDB70C
:1006B000FEB7928381838091ED039091EE03948342
:1006C00083830E94580D0F900F900F900F90089504
:1006D0000E949C0C9C01B901882777FD8095982F7A
:1006E0000E94890829E030EF4CE85AE30E9488070D
:1006F00020E030E04AE754E40E9488070E940009A5
:10070000DC01CB01845F91406AE070E00E940F0B36
:100710007093EE036093ED031092EC031092EB03E1
:100720000895AF92BF92CF92DF92EF92FF920F9314
:100730001F93CF93DF93CDB7DEB7CA54D0400FB627
:10074000F894DEBF0FBECDBF0E94D305009709F419
:1007500088C0CE010B960E94320D009729F489E5DE
:1007600092E00E94710DFFCFCE010B966EE672E013
:100770000E94BA0C8C0180E090E06EE672E00E946C
:10078000BA0C7C0180E090E06EE672E00E94BA0C48
:100790005C0180E090E06EE672E00E94BA0C6C01B1
:1007A0000115110509F451C0C80166E772E00E9405
:1007B000BF0C009721F4C7010E94910146C0C801F7
:1007C0006CE772E00E94BF0C009779F5E114F10428
:1007D00019F482E892E037C0C7010E949C0C8C019A
:1007E000C50166E772E00E94BF0C0097D9F481E969
:1007F00091E09A838983CE010396C114D10411F04C
:10080000B60102C06AE872E00E94C80CF894C80100
:1008100060E071E00E940F0BCE0101960E94AF04D0
:10082000789413C08BE892E00EC0C80163E972E0CF
:100830000E94BF0C009729F48AE892E00E944103CD
:1008400004C08AE992E00E94710D0F920F9283E733
:1008500092E0EDB7FEB7928381830E94580D0F900E
:100860000F90C65BDF4F0FB6F894DEBF0FBECDBF53
:10087000DF91CF911F910F91FF90EF90DF90CF907C
:10088000BF90AF9008951092B200E6EBF0E0808147
:1008900080628083E0E7F0E0808181608083E1EB2B
:1008A000F0E0808181608083808182608083089510
:1008B000CF93DF930DC08C859D859093F00380933B
:1008C000EF03CE0102960E94CC02CE010E94030CDF
:1008D000C091EF03D091F003209721F08881998196
:1008E000009749F3DF91CF9108951F920F920FB6B1
:1008F0000F920BB60F9211242F933F934F935F9358
:100900006F937F938F939F93AF93BF93EF93FF93D7
:10091000E091EF03F091F003309749F080819181ED
:10092000019791838083009711F40E945804FF91EE
:10093000EF91BF91AF919F918F917F916F915F9157
:100940004F913F912F910F900BBE0F900FBE0F90C4
:100950001F9018958EE090E00E946D0B0895EF9225
:10096000FF920F931F93CF93DF93F82EE92E8B0105
:100970000E94AA04DC01FC013296CF2DDE2D8AE014
:10098000099001928150E1F711961C930E93C0914A
:10099000EF03D091F003209729F4B093F003A093D4
:1009A000EF0330C020E030E040E050E001C0EF0154
:1009B00088819981480F591F4017510734F4EC85FD
:1009C000FD859E01309799F701C0FE012115310583
:1009D00079F480819181801B910B918380831D9696
:1009E000FC93EE931C97B093F003A093EF0319C010
:1009F000309769F4041B150B11961C930E93E901B3
:100A0000BD87AC871D961C921E921C970AC011963A
:100A10001C921E92E901BD87AC871D96FC93EE9354
:100A20001C97DF91CF911F910F91FF90EF90089548
:100A3000EF92FF920F931F93CF93DF938AE090E0A2
:100A40000E946A0DC091EF03D091F00300E010E026
:100A50008DEAE82E82E0F82E20C088819981080F67
:100A6000191F00D000D0EDB7FEB73196ADB7BEB7B5
:100A70001296FC92EE9211979383828315830483DE
:100A80000E94580D0C84DD85C02D8DB79EB706964B
:100A90000FB6F8949EBF0FBE8DBF2097F1F68AE087
:100AA00090E00E946A0DDF91CF911F910F91FF900E
:100AB000EF90089509C0FC01248535853093F0033B
:100AC0002093EF030E94030C8091EF039091F003B9
:100AD000009789F70895F8940E94A00678948823D7
:100AE000D1F3843011F090E008958FEF9FEF0895D7
:100AF000CF93C82F8A3019F48DE00E947805F894BE
:100B000080919704882359F4C093C60081E08093B4
:100B100097040AC0789486EF8A95F1F7F8948C2FA1
:100B20000E94BD060097B1F3789481E090E0CF91E8
:100B3000089589EB92E0909325058093240587EC36
:100B400092E090932705809326050E946D061092EF
:100B500097041092C50083E08093C400E1ECF0E0BC
:100B600080818860808380818064808380818061CF
:100B700080838081806880830895CF93C82F8A30D6
:100B800019F48DE00E94BD0580919704882331F40B
:100B9000C093C60081E08093970403C08C2F0E940D
:100BA000BD06CF9108950E94FC0608951F920F92F2
:100BB0000FB60F920BB60F9211242F933F934F93C2
:100BC0005F936F937F938F939F93AF93BF93EF93B5
:100BD000FF930E94DF06882319F41092970402C045
:100BE0008093C600FF91EF91BF91AF919F918F913C
:100BF0007F916F915F914F913F912F910F900BBE1D
:100C00000F900FBE0F901F9018951F920F920FB666
:100C10000F920BB60F9211241F932F933F934F9374
:100C20005F936F937F938F939F93AF93BF93EF9354
:100C3000FF93CF93DF93CDB7DEB72A97DEBFCDBF4B
:100C40001091C6001B3161F48091D5029091D602BB
:100C50000196817090709093D6028093D50224C043
:100C6000143069F01D3009F41AE02091D50230915A
:100C7000D6022115310519F0812F0E94BD05812F63
:100C80000E947E06143011F01A3071F481E993E06D
:100C90009A838983CE01039668EB72E00E94C80CA8
:100CA000CE0101960E94CC022A96DEBFCDBFDF9115
:100CB000CF91FF91EF91BF91AF919F918F917F91D4
:100CC0006F915F914F913F912F911F910F900BBEAC
:100CD0000F900FBE0F901F9018951092DD04109288
:100CE000DC041092DB041092DA041092DF041092FC
:100CF000DE0410929904109298040895482F2091D0
:100D0000DE043091DF042F5F3F4FC90160E470E0E3
:100D10000E940F0B9C0180919804909199042817D0
:100D2000390759F03093DF042093DE0420523B4F03
:100D3000F901408381E090E0089580E090E008951B
:100D400080919804909199042091DE043091DF0401
:100D50002817390779F0019660E470E00E940F0BC4
:100D6000909399048093980480529B4FFC0180815A
:100D700090E0089580E090E00895482F2091DC04F1
:100D80003091DD042F5F3F4FC90160E470E00E94A5
:100D90000F0B9C018091DA049091DB04281739072E
:100DA00059F03093DD042093DC0426563B4FF901C3
:100DB000408381E090E0089580E090E00895809184
:100DC000DA049091DB042091DC043091DD042817D3
:100DD000390779F0019660E470E00E940F0B909360
:100DE000DB048093DA0486569B4FFC01808190E0FF
:100DF000089580E090E0089580919804909199047E
:100E00002091DE043091DF048217930741F0805275
:100E10009B4FFC01818190E08F739070089580E07A
:100E200090E00895809880E880937C000895EAE738
:100E3000F0E08081806880838DED90E00197F1F78C
:100E400080818860808380818064808308951F9280
:100E50000F920FB60F920BB60F9211240F931F93A0
:100E60002F933F934F935F936F937F938F939F93B2
:100E7000AF93BF93EF93FF93CF93DF93CDB7DEB7DD
:100E80002897DEBFCDBF8091780090917900EAE786
:100E9000F0E020812F77208300D000D0EDB7FEB79F
:100EA00031968E010F5F1F4FADB7BEB712961C93E0
:100EB0000E93119727ED32E033832283937095834D
:100EC00084830E949F0D8DB79EB706960FB6F89447
:100ED0009EBF0FBE8DBFC8010E9441032896DEBF92
:100EE000CDBFDF91CF91FF91EF91BF91AF919F91D6
:100EF0008F917F916F915F914F913F912F911F91B2
:100F00000F910F900BBE0F900FBE0F901F90189572
:100F1000A0E2B0E0EEE8F7E00C94380BDC01CB0186
:100F20008D839E83AF83B88729833A834B835C8309
:100F3000CE010596BE01675E7F4F0E947B0ACE01FF
:100F40000196BE016F5E7F4F0E947B0A998D9230A1
:100F500078F089898230C0F0943019F4823041F4FD
:100F6000CAC0843019F4923079F4C5C0923051F47B
:100F700081E02A8D9A89291709F480E08A8FCE01B1
:100F80004996BBC0823051F481E02A8D9A89291795
:100F900009F480E08A8BCE014196AFC04D8C5E8C07
:100FA0006F8C78A00D891E892F89388DE0E2F0E0E2
:100FB00040E050E0BA01882499245401CC24DD2477
:100FC0007601C201817090700097D1F0C00ED11EE1
:100FD000E21EF31EDB01CA01880D991DAA1DBB1D6F
:100FE00041E050E060E070E0C016D106E206F30692
:100FF00018F040E050E0BA01480F591F6A1F7B1FEC
:10100000880C991CAA1CBB1C37FF08C081E090E02B
:10101000A0E0B0E0882A992AAA2ABB2A000F111F53
:10102000221F331F7694679457944794319749F65B
:101030008B8D9C8D2B893C89820F931F02969C87F8
:101040008B8781E02A8D9A89291709F480E08A87A5
:101050002B853C8517C0CA0181709070009761F0A4
:10106000F694E794D794C79480E090E0A0E0B0E8CD
:10107000C82AD92AEA2AFB2A769567955795479573
:101080002F5F3F4F77FDE7CFC9010BC0440F551FBE
:10109000661F771FF7FC4160CC0CDD1CEE1CFF1CAB
:1010A00001974030A0E05A07A0E06A07A0E47A0761
:1010B00068F38B879C87DB01CA018F779070A070E3
:1010C000B07080349105A105B10561F447FD0AC0F7
:1010D000C114D104E104F10429F0405C5F4F6F4F6B
:1010E0007F4F40784D875E876F87788B83E0898755
:1010F000CE01099602C08AED92E00E94A409462F13
:10110000572F682F792FCB01BA01A096E0E10C94FC
:10111000540BCF92DF92EF92FF92CF93DF93CDB734
:10112000DEB728970FB6F894DEBF0FBECDBF6B01B8
:101130007C0183E08983D701C6018827B7FD8395A9
:101140009927AA27BB27282F8A83C114D104E10439
:10115000F10419F482E0898335C08EE190E09C832C
:101160008B83222389F080E0C81680E0D80680E0D7
:10117000E80680E8F80659F1F094E094D094C09421
:10118000C11CD11CE11CF11CCD82DE82EF82F886ED
:10119000C701B6010E94510901971816190694F467
:1011A000082E04C0CC0CDD1CEE1CFF1C0A94D2F7E8
:1011B000CD82DE82EF82F8862EE130E0281B390BEB
:1011C0003C832B83CE0101960E94A40904C060E0F9
:1011D00070E080E09FEC382F292F862F972FA32FC8
:1011E000B22FBC01CD0128960FB6F894DEBF0FBE1A
:1011F000CDBFDF91CF91FF90EF90DF90CF9008951A
:10120000ACE0B0E0E6E0F9E00C94440BDC01CB018B
:1012100089839A83AB83BC83CE010196BE016B5F49
:101220007F4F0E947B0A8D81823069F1823058F1B4
:10123000843039F02F81388537FD25C02F313105B5
:1012400044F08E81882319F100E010E020E030E8BE
:1012500022C08EE190E0821B930B09851A852B85B5
:101260003C8504C036952795179507958A95D2F742
:101270008E81882381F030952095109501951F4F20
:101280002F4F3F4F08C000E010E0980104C00FEF5F
:101290001FEF2FEF3FE7B801C9012C96E4E00C9453
:1012A000600BCF92DF92EF92FF920F931F938B010F
:1012B0009C01003080E0180781E0280780E03807B3
:1012C00050F40F3F11052105310509F088F480E045
:1012D00090E0DC0116C00030E0E01E07E0E02E07E1
:1012E000E1E03E0750F480E190E0A0E0B0E009C00A
:1012F00088E090E0A0E0B0E004C088E190E0A0E0E9
:10130000B0E040E250E060E070E0481B590B6A0B2F
:101310007B0B6801790104C0F694E794D794C794D5
:101320008A95D2F7D701C6018E519D4FFC0180816D
:10133000481B510961097109CA011F910F91FF9062
:10134000EF90DF90CF900895CF92DF92EF92FF92CF
:101350000F931F93DC0114964D915D916D917C91DB
:1013600017971196EC9111978C91823020F460615F
:101370008FEF90E0A5C0843009F49DC0823009F45D
:1013800094C0411551056105710509F491C012968B
:101390008D919C9113972FEF823892070CF059C0D2
:1013A00022E83FEF281B390B2A31310564F56A0129
:1013B0007B01022E04C0F694E794D794C7940A9454
:1013C000D2F781E090E0A0E0B0E004C0880F991F60
:1013D000AA1FBB1F2A95D2F70197A109B10984233F
:1013E0009523A623B72341E050E060E070E000972A
:1013F000A105B10519F440E050E0BA014C295D297E
:101400006E297F2903C040E050E0BA01DB01CA0128
:101410008F779070A070B07080349105A105B105F0
:1014200039F447FF09C0405C5F4F6F4F7F4F04C0E6
:10143000415C5F4F6F4F7F4F81E090E0403020E094
:10144000520720E0620720E4720738F580E090E060
:1014500024C0803891057CF58A019B010F771070BC
:1014600020703070003411052105310539F447FF33
:1014700009C0405C5F4F6F4F7F4F04C0415C5F4FBE
:101480006F4F7F4F77FD03C081589F4F06C0769501
:1014900067955795479580589F4F97E07695679544
:1014A000579547959A95D1F70BC080E090E005C01D
:1014B00080E090E005C08FEF90E040E050E0BA019E
:1014C000982F979599279795A62FAF77E795EE27B1
:1014D000E79586953A2F392B282F2E2B842F952F81
:1014E000A32FB22FBC01CD011F910F91FF90EF9060
:1014F000DF90CF900895DC01FB014C9111965C9137
:10150000119712968C911297682F6F7770E0982F31
:10151000991F9927991F13962C911397822F880F43
:10152000892B90E0221F2227221F2183009739F563
:10153000411551056105710511F482E029C082E869
:101540009FEF9383828327E0440F551F661F771F09
:101550002A95D1F783E0808309C0440F551F661F89
:10156000771F82819381019793838283403080E04B
:10157000580780E0680780E4780778F320C08F3F41
:10158000910579F4411551056105710519F484E05F
:101590008083089564FF03C081E0808310C01082BF
:1015A0000EC08F5790409383828383E0808387E0CF
:1015B000440F551F661F771F8A95D1F770644483C7
:1015C0005583668377830895CF93DF93CDB7DEB7D6
:1015D0002A970FB6F894DEBF0FBECDBF0E949905C3
:1015E0000E94C3020E94430478940F920F9283E3F7
:1015F00092E0EDB7FEB7928381830E94580D0F9061
:101600000F90F894CE0101960E940C0378940097F5
:10161000C1F3E981FA81CE0103961995F2CF97FBC8
:10162000092E07260AD077FD04D00CD006D0002062
:101630001AF4709561957F4F0895F6F7909581950E
:101640009F4F0895AA1BBB1B51E107C0AA1FBB1FD8
:10165000A617B70710F0A61BB70B881F991F5A953E
:10166000A9F780959095BC01CD0108952F923F92E6
:101670004F925F926F927F928F929F92AF92BF92A2
:10168000CF92DF92EF92FF920F931F93CF93DF934E
:10169000CDB7DEB7CA1BDB0B0FB6F894DEBF0FBEAB
:1016A000CDBF19942A88398848885F846E847D84E8
:1016B0008C849B84AA84B984C884DF80EE80FD80FA
:1016C0000C811B81AA81B981CE0FD11D0FB6F89470
:1016D000DEBF0FBECDBFED010895CF93DF93AC0108
:1016E0008230910510F442E050E0E0912205F09143
:1016F000230520E030E0A0E0B0E024C080819181AB
:1017000084179507D0F08417950771F4828193812F
:10171000109729F013969C938E9312972CC0909358
:1017200023058093220527C02115310519F0821762
:10173000930718F49C01BD01EF0192818381DF01C1
:10174000E92FF82F3097D1F621153105F9F0C901AD
:10175000841B950B8430910580F48A819B816115EF
:10176000710521F0FB019383828304C090932305CC
:1017700080932205FE01329642C0FE01E80FF91F58
:101780004193519302979983888339C080912005B2
:1017900090912105009741F48091E4039091E50335
:1017A00090932105809320052091E2033091E3037B
:1017B0002115310541F42DB73EB78091E603909194
:1017C000E703281B390BE0912005F0912105E21772
:1017D000F30798F42E1B3F0B2417350770F0CA014E
:1017E00002962817390748F08E0F9F1F9093210506
:1017F000809320054193519302C0E0E0F0E0CF01D7
:10180000DF91CF9108950F931F93CF93DF939C01A6
:10181000009709F48CC0DC01129713961C921E925B
:10182000129760912205709123056115710589F465
:101830008D919C911197820F931F209120053091DB
:1018400021052817390769F5B0932105A0932005D4
:101850006EC0FB0140E050E001C0FC01EA17FB074D
:1018600030F482819381AF010097B9F71FC0E9017D
:101870002297FB83EA8308811981C901800F911F98
:101880008E179F0759F480819181800F911F0296D6
:1018900099838883828193819B838A834115510533
:1018A00029F4B0932305A093220541C0FA01B38324
:1018B000A283C191D191EC0FFD1FAE17BF0781F438
:1018C000F901929182918C0F9D1F0296DA01119677
:1018D0009C938E938281938113969C938E931297FF
:1018E000E0E0F0E002C0FB01BC01DB0112968D914B
:1018F0009C9113970097B9F7CB0102962D913C91DB
:101900001197820F931F20912005309121052817F0
:10191000390769F4309729F41092230510922205B3
:1019200002C0138212827093210560932005DF911B
:10193000CF911F910F910895FC0188279927E89472
:1019400021912032E9F3293010F02E30C8F32B32E8
:1019500041F02D3239F4689404C00E94F60C820FD5
:10196000911D219120532A30C0F31EF4909581954A
:101970009F4F089541EF53E00E94CF0C0895FB0163
:10198000DC018D91019080190110D9F3990B089514
:10199000FB01DC0101900D920020E1F70895FA01AE
:1019A000A191B081009719F41097E1F0CD01DC010D
:1019B000CD010D90002011F4C00113C0FB01219155
:1019C000222319F02015D9F7F3CFFB01219120151F
:1019D00019F41E92119606C02223C1F70D90002023
:1019E000A1F7D001FA01A193B08308957AE0979FFF
:1019F000902D879F802D910D11240895CF92DF9215
:101A0000EF92FF920F931F93CF93DF938C016A01A4
:101A1000FA01838180FF1AC016161706BCF47B01F9
:101A2000E8010EC0C6010E94EB0FFFEF8F3F9F073A
:101A300069F089930894E108F1088A30910521F052
:101A400021E0E216F10471F7188202C000E010E014
:101A5000C801DF91CF911F910F91FF90EF90DF9020
:101A6000CF9008950F931F93CF93DF938C01E09154
:101A70002405F0912505838180FF12C0E801809143
:101A80002405909125050E94EB0F2FEF8F3F9207C1
:101A900039F089938A30910591F72197188202C015
:101AA00000E010E0C801DF91CF911F910F910895E0
:101AB000CF93DF93CDB7DEB7FE013696619171917A
:101AC0008091260590912705AF010E94CE0DDF91F0
:101AD000CF91089560912605709127050E942B10E3
:101AE00008950F931F93CF93DF938C01E091260508
:101AF000F0912705838181FF1AC0C0E0D0E005C0C6
:101B00001995009711F0CFEFDFEFF80181918F0168
:101B10006091260570912705DB011896ED91FC91E7
:101B20001997882369F78AE01995009711F0CFEF8C
:101B3000DFEFCE01DF91CF911F910F9108950F93A9
:101B40001F93CF93DF93CDB7DEB72E970FB6F894E0
:101B5000DEBF0FBECDBF0E891F8986E08C831A833E
:101B600009838FEF9FE79E838D83AE01465E5F4FB3
:101B7000CE010196688D798D0E94CE0DEF81F8859A
:101B8000E00FF11F10822E960FB6F894DEBF0FBE45
:101B9000CDBFDF91CF911F910F9108952F923F926A
:101BA0004F925F926F927F928F929F92AF92BF926D
:101BB000CF92DF92EF92FF920F931F93CF93DF9319
:101BC000CDB7DEB72D970FB6F894DEBF0FBECDBFF1
:101BD0003C017D876C875A01FC0117821682838144
:101BE00081FFC8C12E010894411C511CF30193814F
:101BF000EC85FD8593FD859193FF8191FD87EC87B1
:101C0000882309F4B3C1853241F493FD859193FF94
:101C10008191FD87EC87853229F490E0B3010E9421
:101C20002B10E4CFFF24EE2410E01032B0F48B32FE
:101C300069F08C3228F4803251F0833271F40BC099
:101C40008D3239F0803349F411602CC01260146079
:101C500029C0186027C0106125C017FD2EC0282F8D
:101C600020532A3098F416FF08C08F2D880FF82EC5
:101C7000FF0CFF0CF80EF20E15C08E2D880FE82E0B
:101C8000EE0CEE0CE80EE20E10620CC08E3221F467
:101C900016FD6CC1106406C08C3611F4106802C0C9
:101CA000883659F4EC85FD8593FD859193FF8191EC
:101CB000FD87EC87882309F0B8CF982F955493308F
:101CC00018F09052933038F424E030E0A20EB31EA6
:101CD0003FE339830FC0833631F0833781F083359A
:101CE00009F05AC022C0F5018081898322E030E0EA
:101CF000A20EB31E21E0C22ED12C420114C092E0EC
:101D0000292E312C2A0C3B1CF5018080918016FF76
:101D100003C06F2D70E002C06FEF7FEFC4010E941F
:101D2000E00F6C0151011F7715C082E0282E312C85
:101D30002A0C3B1CF5018080918016FF03C06F2D9B
:101D400070E002C06FEF7FEFC4010E94D50F6C01FD
:101D50001068510113FD1CC006C080E290E0B30181
:101D60000E942B10EA948E2D90E0C816D906A8F395
:101D70000FC0F40117FD859117FF81914F0190E08D
:101D8000B3010E942B10E110EA940894C108D10815
:101D9000C114D10471F7E7C0843611F0893651F5CA
:101DA000F50117FF07C080819181A281B38124E0F2
:101DB00030E008C080819181AA2797FDA095BA2FB5
:101DC00022E030E0A20EB31E012F0F76B7FF08C04D
:101DD000B095A095909581959F4FAF4FBF4F0068EC
:101DE000BC01CD01A2012AE030E00E945710D82E9C
:101DF000D4183FC0853721F41F7E2AE030E020C090
:101E0000197F8F36A9F0803720F4883509F0AEC0ED
:101E10000BC0803721F0883709F0A8C001C01061DD
:101E200014FF09C0146007C014FF08C0166006C084
:101E300028E030E005C020E130E002C020E132E0DF
:101E4000F50117FF07C0608171818281938144E0B1
:101E500050E006C06081718180E090E042E050E097
:101E6000A40EB51EA2010E945710D82ED418012F1F
:101E70000F7706FF09C00E7FDF1430F404FF06C0A1
:101E800002FD04C00F7E02C01D2D01C01F2D802F3A
:101E900090E004FF0CC0FE01ED0DF11D2081203308
:101EA00011F4097E09C002FF06C01E5F05C08678D6
:101EB0009070009709F01F5F802E992403FD12C0D7
:101EC00000FF0DC0FD2C1E1550F4FE0CF11A1E2D46
:101ED00006C080E290E0B3010E942B101F5F1E1528
:101EE000C0F304C01E1510F4E11A01C0EE2484FEF4
:101EF0000FC080E390E0B3010E942B1082FE1FC050
:101F000081FE03C088E590E010C088E790E00DC036
:101F1000C40186789070009791F081FC02C080E245
:101F200001C08BE207FD8DE290E0B3010E942B100F
:101F300006C080E390E0B3010E942B10FA94DF14F6
:101F4000C0F3DA94F201ED0DF11D808190E0B30150
:101F50000E942B10DD20A9F706C080E290E0B301BB
:101F60000E942B10EA94EE20C1F740CEF301868147
:101F7000978102C08FEF9FEF2D960FB6F894DEBFCA
:101F80000FBECDBFDF91CF911F910F91FF90EF90CA
:101F9000DF90CF90BF90AF909F908F907F906F9089
:101FA0005F904F903F902F900895FC0105906150F5
:101FB00070400110D8F7809590958E0F9F1F08955F
:101FC000FC016150704001900110D8F78095909508
:101FD0008E0F9F1F0895CF93DF93EC012B8120FF7D
:101FE00035C026FF09C02F7B2B838E819F810196F0
:101FF0009F838E838A8128C022FF0FC0E881F981E8
:102000008081992787FD9095009719F420622B8392
:102010001DC03196F983E88311C0EA85FB85CE01A6
:10202000199597FF0BC02B813FEF8F3F930711F45A
:1020300080E101C080E2822B8B8308C02E813F812A
:102040002F5F3F4F3F832E8390E002C08FEF9FEFC3
:10205000DF91CF9108950F931F93CF93DF938C015E
:10206000EB018B8181FF1BC082FF0DC02E813F8160
:102070008C819D812817390764F4E881F9810193E7
:10208000F983E88306C0E885F985802F19950097C4
:1020900031F48E819F8101969F838E8302C00FEF62
:1020A0001FEFC801DF91CF911F910F910895FA01A1
:1020B000AA27283051F1203181F1E8946F936E7F87
:1020C0006E5F7F4F8F4F9F4FAF4FB1E03ED0B4E078
:1020D0003CD0670F781F891F9A1FA11D680F791FB9
:1020E0008A1F911DA11D6A0F711D811D911DA11DCA
:1020F00020D009F468943F912AE0269F11243019DA
:10210000305D3193DEF6CF010895462F4770405D74
:102110004193B3E00FD0C9F7F6CF462F4F70405D23
:102120004A3318F0495D31FD4052419302D0A9F77E
:10213000EACFB4E0A6959795879577956795BA9578
:10214000C9F700976105710508959B01AC010A2E3E
:1021500006945795479537952795BA95C9F7620F15
:0E216000731F841F951FA01D0895F894FFCFD4
:10216E0025642069732061207072696D65206E751B
:10217E006D626572202121210A00636F756E743DB8
:10218E0025640A003E2020003E3E20002D2D3E25D7
:10219E0063200024200043757272656E742074658E
:1021AE006D70657261747572652069732025642087
:1021BE006465677265652E0A006C6F676F75742CA7
:1021CE0020676F6F6420627965202121210020092C
:1021DE000A0D002420007072696D650074696D65CA
:1021EE0072002121212D32323200002121212D3386
:1021FE0033330074633130343700556E6B6E6F7746
:10220E006E20636F6D6D616E642E2E2E002D2D3E31
:10221E00256428256429200000000000010000002C
:10222E000000006B050000000000020000000078B6
:10223E000500000000010025640000000000000001
:10224E000000000102020303030304040404040457
:10225E000404050505050505050505050505050522
:10226E000505060606060606060606060606060602
:10227E0006060606060606060606060606060606F0
:10228E0006060707070707070707070707070707D2
:10229E0007070707070707070707070707070707C0
:1022AE0007070707070707070707070707070707B0
:1022BE0007070707070707070707070707070707A0
:1022CE000707080808080808080808080808080882
:1022DE000808080808080808080808080808080870
:1022EE000808080808080808080808080808080860
:1022FE000808080808080808080808080808080850
:10230E00080808080808080808080808080808083F
:10231E00080808080808080808080808080808082F
:10232E00080808080808080808080808080808081F
:10233E00080808080808080808080808080808080F
:08234E00080800002A05200028
:00000001FF
