:100000000C9472000C9494000C9494000C94940042
:100010000C9494000C9494000C9494000C94940010
:100020000C9494000C9494000C9494000C94940000
:100030000C9494000C9494000C9494000C949400F0
:100040000C9494000C9494000C9494000C949400E0
:100050000C9494000C9494000C9494000C949400D0
:100060000C9494000C9494000C9494000C949400C0
:100070000C9494000C9494000C9494000C949400B0
:100080000C9494000C9494000C9494000C949400A0
:100090000C9494000C9494000C9494000C94940090
:1000A0000C9494000C9494000C9494000C94940080
:1000B0000C9494000C9494000C9494000C94940070
:1000C0000C9494000C9494000C9494000C94940060
:1000D0000C9494000C9494000C9494000C94940050
:1000E0000C94940011241FBECFEFD1E2DEBFCDBF30
:1000F00000E00CBF12E0A0E0B2E0E4E2F2E000E0D9
:100100000BBF02C007900D92A830B107D9F71BBEF4
:1001100012E0A8E0B2E001C01D92A930B107E1F7FA
:100120000E94F9000C9410010C9400008FEF809352
:100130000B0180930A01089510920B01109208029E
:1001400008958FEF80930B0180930802089521E0BA
:1001500030E002C0220F331F8A95E2F7209580918C
:10016000080228232093080220930B01089521E020
:1001700030E002C0220F331F8A95E2F78091080217
:10018000822B8093080280930B01089580958093C1
:10019000080280930B0108951092C50087E08093B8
:1001A000C400E0ECF0E0808182608083E1ECF0E06C
:1001B0008081886080830895CF93C82F8A3019F496
:1001C0008DE00E94DC008FEF97E40197F1F700C00B
:1001D0000000C093C600CF910895CF93DF93EC0148
:1001E00002C00E94DC0089918823D9F7DF91CF916A
:1001F00008950E94CC00C4E1D0E00BC0812F0E9482
:10020000DC001F5F1B35D1F78AE00E94DC002197DC
:1002100011F011E4F3CF80E092E00E94ED00FFCFF7
:04022000F894FFCF80
:0802240054686520456E64007A
:00000001FF
