:100000000C9472000C9494000C9494000C94940042
:100010000C9494000C9494000C9494000C94940010
:100020000C9494000C9494000C9494000C94940000
:100030000C9494000C9494000C9494000C949400F0
:100040000C9494000C9494000C9494000C949400E0
:100050000C9494000C9494000C9494000C949400D0
:100060000C9494000C9494000C9494000C94FF0055
:100070000C9494000C9494000C9494000C949400B0
:100080000C9494000C9494000C9494000C949400A0
:100090000C9494000C9494000C9494000C94940090
:1000A0000C9494000C9494000C9494000C94940080
:1000B0000C9494000C9494000C9494000C94940070
:1000C0000C9494000C9494000C9494000C94940060
:1000D0000C9494000C9494000C9494000C94940050
:1000E0000C94940011241FBECFEFD1E2DEBFCDBF30
:1000F00000E00CBF12E0A0E0B2E0E2ECF2E000E0D1
:100100000BBF02C007900D92A232B107D9F71BBEF8
:1001100012E0A2E2B2E001C01D92A736B107E1F7FA
:100120000E943D010C945F010C9400008FEF8093BE
:100130000B0180930A0180932202089510920B0113
:100140001092220208958FEF80930B018093220278
:10015000089521E030E002C0220F331F8A95E2F7B4
:1001600020958091220228232093220220930B01C4
:10017000089521E030E002C0220F331F8A95E2F794
:1001800080912202822B8093220280930B0108959A
:1001900080958093220280930B0108951092C500F0
:1001A00083E08093C400E1ECF0E08081886080838C
:1001B0008081806480830895BC01809125029091A4
:1001C00026020097D1F3109226021092250287E2B0
:1001D00092E00E9458011092240210922302809112
:1001E000230290912402FC01E95DFD4F20810196DC
:1001F00090932402809323022093C60008951F92B7
:100200000F920FB60F920BB60F9211242F938F936C
:100210009F93EF93FF93E0912302F0912402E95D15
:10022000FD4F2081222339F481E090E09093260253
:100230008093250216C02A3049F4E0912302F09100
:100240002402E95DFD4F8DE0808309C08091230287
:10025000909124020196909324028093230220938C
:10026000C600FF91EF919F918F912F910F900BBE40
:100270000F900FBE0F901F9018950E94CE000E9405
:10028000960078940E94A300CAE0D0E080E092E05B
:100290000E94DC008EE092E00E94DC002197B1F722
:1002A00087E192E00E94DC0080E00E94A900FFCF7D
:1002B000FB01DC0101900D920020E1F70895F89414
:0202C000FFCF6E
:1002C200546573742031204C696E65200A00422007
:1002D2004C696E65200A0054686520454E44212110
:0202E2000A0010
:00000001FF
