:100000000C9472000C9494000C9494000C94940042
:100010000C9494000C9494000C9494000C94940010
:100020000C9494000C9494000C9494000C94940000
:100030000C9494000C9494000C9494000C949400F0
:100040000C9494000C9494000C9494000C949400E0
:100050000C9494000C9494000C9494000C949400D0
:100060000C9494000C9494000C9494000C940B0148
:100070000C9494000C9494000C9494000C949400B0
:100080000C9494000C9494000C9494000C949400A0
:100090000C9494000C9494000C9494000C94940090
:1000A0000C9494000C9494000C9494000C94940080
:1000B0000C9494000C9494000C9494000C94940070
:1000C0000C9494000C9494000C9494000C94940060
:1000D0000C9494000C9494000C9494000C94940050
:1000E0000C94940011241FBECFEFD1E2DEBFCDBF30
:1000F00000E00CBF12E0A0E0B2E0E8ECF2E000E0CB
:100100000BBF02C007900D92AC31B107D9F71BBEEF
:1001100012E0ACE1B2E001C01D92AF35B107E1F7EA
:100120000E9449010C9462010C9400008FEF8093AF
:100130000B0180930A01089510920B0110921C028A
:1001400008958FEF80930B0180931C02089521E0A6
:1001500030E002C0220F331F8A95E2F7209580918C
:100160001C02282320931C0220930B01089521E0F8
:1001700030E002C0220F331F8A95E2F780911C0203
:10018000822B80931C0280930B01089580958093AD
:100190001C0280930B0108951092C50087E08093A4
:1001A000C400E0ECF0E0808182608083E1ECF0E06C
:1001B0008081886080838081806480830895CF936C
:1001C000DF93EC010E949C008091190290911A0229
:1001D0000097D1F310921A02109219020E94A10006
:1001E0008FE192E0BE010E945B0110921E0210920C
:1001F0001D0280911D0290911E02FC01E15EFD4FE7
:100200002081019690931E0280931D022093C600C8
:10021000DF91CF9108951F920F920FB60F920BB6F8
:100220000F9211242F938F939F93EF93FF93E0915D
:100230001D02F0911E02E15EFD4F2081222339F460
:1002400081E090E090931A028093190216C02A3040
:1002500049F4E0911D02F0911E02E15EFD4F8DE038
:10026000808309C080911D0290911E020196909397
:100270001E0280931D022093C600FF91EF919F9173
:100280008F912F910F900BBE0F900FBE0F901F906C
:1002900018950E9496000E94CC007894C0E1D7E2A5
:1002A00080E092E00E94DF002197D1F78DE092E09C
:1002B0000E94DF00FFCFFB01DC0101900D920020C6
:0802C000E1F70895F894FFCF67
:1002C80069206C6F766520796F752E0A0054484551
:0C02D80020454E442021210A00010000B6
:00000001FF
